:020000040800F2
:1000000000500020BD0700080D0800080D0800087A
:100010000D0800080D0800080D0800080000000089
:100020000000000000000000000000000D080008B3
:100030000D080008000000000D080008E503000896
:100040000D0800080D0800080D0800080D0800083C
:100050000D0800080D0800080D0800080D0800082C
:100060000D0800080D0800080D0800080D0800081C
:100070000D0800080D0800080D0800080D0800080C
:100080000D0800080D0800080D0800080D080008FC
:10009000FD0200080D0800080D0800080D08000802
:1000A0000D0800080D0800080D0800080D080008DC
:1000B0000D0800080D0800080D0800080D080008CC
:1000C0000D0800080D0800080D0800080D080008BC
:1000D0000D0800080D0800080D0800080D080008AC
:1000E0000D0800080D080008000000000D080008B9
:1000F0000D0800080D0800080D0800080D0800088C
:100100000D0800080D0800080D0800080D0800087B
:100110000D0800080D0800080D0800080D0800086B
:100120000D0800080D0800080D0800080D0800085B
:1001300010B5054C237833B9044B13B10448AFF321
:1001400000800123237010BD60000020000000002B
:100150009816000808B5034B1BB103490348AFF3D9
:10016000008008BD00000000640000209816000810
:10017000034613F8012B002AFBD1181A01387047E7
:1001800080B400AF00BFBD4680BC704780B483B070
:1001900000AF0346FB7197F90730002B0BDBFB79AF
:1001A00003F01F02064997F907305B09012000FAA6
:1001B00002F241F8232000BF0C37BD4680BC7047D7
:1001C00000E100E080B500AF474BDB69464A43F0F1
:1001D0000073D361444B9B69434A43F0040393612A
:1001E000414B9B69404A43F0010393613F4B5B687D
:1001F0003E4A23F47F2353603C4B5B683B4A43F405
:10020000342353603A4B1B68394A43F001031360AF
:1002100000BF374B5B6803F00103002BF9D0344B70
:100220001B68334A23F00203136000BF304B5B6846
:1002300003F00203002BF9D12D4B2E4ADA612C4B2F
:10024000D3F81C322A4A23F00103C2F81C32284B8F
:10025000D3F80432264A43F00103C2F80432244B97
:10026000D3F80C32224A23F00103C2F80C32204B9F
:10027000D3F814321E4A23F00103C2F814321C4B87
:100280001D4AC3F840221A4BD3F81C32184A43F0D7
:100290000103C2F81C32164BD3F80032144A23F083
:1002A0000103C2F80032124B5B69114A43F00203AA
:1002B00053610F4B5B690E4A43F4004353611420B2
:1002C000FFF764FF0A4B1B68094A23F00103136020
:1002D00000BF074B5B6803F00103002BF9D162B646
:1002E00000BF00BF80BD00BF0010024000080140F9
:1002F0000064004001001400400020002DE9F003DC
:1003000082B000AF234BD3F8B8317B60214BD3F8D8
:10031000BC313B601F4BD3F8B0315B0D9BB2C3F3D4
:100320000A039AB21C4B1A801A4BD3F8B431DBB2D1
:1003300003F00F03DAB2194B1A70164BD3F8B4312D
:100340001B0C9AB2164B1A803B68002298469146C5
:100350004FF000024FF00003434600227E684FF04A
:10036000000C3046614642EA000443EA01050D4BA9
:10037000C3E900450C4B01221A70064BDB68054AA5
:1003800043F02003D36000BF0837BD46BDE8F0034B
:10039000704700BF00640040800000208200002001
:1003A00084000020880000209000002080B483B0EA
:1003B00000AF0346FB7197F90730002B0BDBFB798D
:1003C00003F01F02064997F907305B09012000FA84
:1003D00002F241F8232000BF0C37BD4680BC7047B5
:1003E00000E100E080B400AF044B1B680133034A16
:1003F000136000BFBD4680BC704700BF7C0000207A
:1004000080B500AF084B41F63F725A60064B0022A0
:100410009A60054B07221A604FF0FF30FFF7C6FFC6
:1004200062B600BF00BF80BD10E000E080B487B0BE
:1004300000AFF860B9607A607B685A08BB681A44FC
:100440007B68B2FBF3F3FB82FA8AFB689A6000BF19
:100450001C37BD4680BC704780B500AF174B9B6909
:10046000164A43F004039361154B1B68144A23F4A6
:100470007F431360124B1B68114A43F430631360CF
:100480000F4B1B680E4A43F4804313600B4BDB6930
:100490000A4A43F40033D3614FF4E13209490A4870
:1004A000FFF7C4FF084B0C22DA60074BDB68064AF3
:1004B00043F40053D36000BF80BD00BF0010024072
:1004C0000008014000127A000044004080B400AFF0
:1004D00000BF064B1B6803F02003002BF9D0034B31
:1004E0005B68DBB21846BD4680BC704700440040E4
:1004F00080B483B000AF786000BF074B1B6803F087
:100500008003002BF9D07B68034ADBB2536000BF45
:100510000C37BD4680BC70470044004080B586B0B3
:1005200000AFF860B9607A6000237B6109E07B6905
:10053000BA6813441B781846FFF7DAFF7B6901336A
:100540007B617A697B689A42F1DB7B6818461837D1
:10055000BD4680BD80B586B000AFF860B9607A60F6
:1005600000237B6121E0FFF7B1FF0346FB74FB7CB6
:100570000D2B0ED10D20FFF7BBFF0A20FFF7B8FFB0
:100580007B695A1C7A611A46BB6813440A221A70A6
:100590000FE0FB7C1846FFF7ABFF7B695A1C7A61C2
:1005A0001A46BB681344FA7C1A707A697B689A42CF
:1005B000D9DB7B6918461837BD4680BD80B400AFD3
:1005C0000F4B9B690E4A43F0100393610D4B5B6820
:1005D0000C4A23F4700353600A4B5B68094A43F4E6
:1005E00000135360074B5B68064A23F440035360D3
:1005F000044B4FF400521A6100BFBD4680BC7047E7
:10060000001002400010014080B586B000AFFFF737
:1006100023FF2A4800F0C0F9294800F0BDF9FFF790
:10062000EFFE284800F0B8F9FFF7C8FF264800F0B1
:10063000B3F9FFF7C7FD254800F0AEF900237B6151
:10064000234B3B613869FFF793FD0346FB733B1D6A
:1006500000221A605A601A721E4B1A687B69D31AFC
:10066000B3F57A7F0BD31C4BDB681B4A83F4005332
:10067000D3601A4800F090F9164B1B687B61184B49
:100680001B78002BE8D0174B1B781A463B1D1649E8
:10069000184600F052FA134B1B7818333B440022E3
:1006A00003F8142C0B4B1A683B1D19460F4800F039
:1006B00073F90B4B00221A70CEE700BFB01600088A
:1006C000C4160008DC160008F41600080817000815
:1006D0001C1700087C0000200010014028170008AB
:1006E0009000002082000020880000203C170008B5
:1006F00080B483B000AF78604FF0FF3318460C37FA
:10070000BD4680BC704780B483B000AF786039606C
:100710003B684FF400525A60002318460C37BD4620
:1007200080BC704780B483B000AF78600123184666
:100730000C37BD4680BC704780B485B000AFF86010
:10074000B9607A60002318461437BD4680BC7047F4
:1007500080B586B000AF7860144A154BD31A7B6120
:100760007B693B61134B1B68002B02D1114B124A72
:100770001A60104B1A687B6813443A699A4207D290
:1007800000F0AEF903460C221A604FF0FF3309E087
:10079000084B1B68FB60074B1A687B681344054ACB
:1007A0001360FB6818461837BD4680BD0050002016
:1007B0000004000094000020E80100200D48854658
:1007C000FFF7DEFC0C480D490D4A002302E0D45827
:1007D000C4500433C4188C42F9D30A4A0A4C00238B
:1007E00001E013600432A242FBD300F07FF9FFF76F
:1007F0000BFFFEE700500020000000205C000020FE
:100800009817000860000020E4010020FEE70000C7
:10081000002310B50446C0E90033C0E90433836007
:1008200081814366C2818361194608225C3000F0F1
:1008300009F90D4B246263620C4BA3620C4BE3621B
:100840000C4B23630C4B9C4206D003F1680294428C
:1008500002D0D0339C4205D104F15800BDE81040CD
:1008600000F068B910BD00BFBD090008DF0900082D
:10087000170A00083D0A000898000020024A0349B0
:10088000034800F06BB800BF00000020E913000827
:100890001000002041680C4B10B59942044601D06D
:1008A00000F0A2FDA168094B994202D0204600F059
:1008B0009BFDE168064B994204D02046BDE81040FC
:1008C00000F092BD10BD00BF980000200001002084
:1008D000680100200C4B0D4A10B504211A600C4829
:1008E0000022FFF795FF0A4B01221C46092103F164
:1008F0006800FFF78DFF04F1D0000222BDE8104030
:100900001221FFF785BF00BFD00100207D0800083D
:1009100098000020014800F00EB900BFD901002066
:10092000014800F009B900BFD901002010B5044604
:10093000FFF7F0FF236A1BB1BDE81040FFF7F0BFDF
:10094000044B2362044B1B68002BF5D1FFF7C2FF59
:10095000F2E700BF95080008D00100202DE9F84318
:100960000746884614460026D4E90195B9F10109E5
:1009700005D52468002CF7D13046BDE8F883AB8953
:10098000012B07D9B5F90E30013303D0294638467B
:10099000C04706436835E9E70FB407B5064904AB1D
:1009A000086853F8042B8168019300F0F3F903B051
:1009B0005DF804EB04B070470C00002010B50C4645
:1009C000B1F90E1000F068F80028ABBF636DA38981
:1009D0001B1823F48053ACBF6365A38110BD2DE9C0
:1009E000F0411F468B890546DB050C46164605D5AA
:1009F00002230022B1F90E1000F03CF8A389324620
:100A000023F48053A38128463B46B4F90E10BDE879
:100A1000F04100F053B810B50C46B1F90E1000F0DB
:100A200029F8B4F90C30421C0BBF23F4805343F473
:100A30008053A381A38118BF606510BDB1F90E106A
:100A400000F008B803460244934200D1704703F80F
:100A5000011BF9E738B50023054D044608462B6015
:100A6000FFF746FE431C02D12B6803B1236038BD5B
:100A7000D401002038B50446084611460022054D31
:100A80002A601A46FFF758FE431C02D12B6803B1B7
:100A9000236038BDD401002038B50446084611460D
:100AA0000022054D2A601A46FFF754FD431C02D16F
:100AB0002B6803B1236038BDD401002038B504464B
:100AC000084611460022054D2A601A46FFF726FD0A
:100AD000431C02D12B6803B1236038BDD401002030
:100AE000014B1868704700BF0C00002070B500264D
:100AF0000C4D0D4B5B1B9C10A64209D1002600F04B
:100B0000CBFD0A4D0A4B5B1B9C10A64205D170BD64
:100B100055F8043B98470136EEE755F8043B9847F3
:100B20000136F2E7901700089017000890170008A8
:100B3000941700087047704770470A44914200F1CB
:100B4000FF3300D1704710B511F8014B914203F803
:100B5000014FF9D110BD000038B50546002940D03D
:100B600051F8043C0C1F002BB8BFE41800F0DEF86D
:100B70001C4A136833B9636014602846BDE83840E6
:100B800000F0DAB8A34208D9206821188B4201BFCF
:100B900019685B6809182160EDE71A465B680BB1BC
:100BA000A342FAD911685018A0420BD12068014421
:100BB000501883421160E0D118685B6808441060E7
:100BC0005360DAE702D90C232B60D6E7206821189E
:100BD0008B4201BF19685B6809182160636054602B
:100BE000CBE738BDE001002070B50F4E0C463168F0
:100BF000054611B900F0B2FC30602146284600F0ED
:100C0000ADFC431C03D14FF0FF34204670BDC41C23
:100C100024F00304A042F8D0211A284600F09EFCDC
:100C20000130F2D1EFE700BFDC0100202DE9F843ED
:100C3000CD1C25F0030508350C2D38BF0C25002DE3
:100C4000064601DBA94204D90C2333600020BDE82D
:100C5000F883DFF8D48000F069F8D8F800301C463B
:100C600044BB29463046FFF7BFFF431C044658D11A
:100C7000D8F800402746002F43D1002C4BD02368E2
:100C80003946304604EB030900F068FC814542D147
:100C9000216830466D1A2946FFF7A6FF01303AD089
:100CA00023682B442360D8F800305A6862BBC8F828
:100CB00000700FE02268521B20D40B2A17D961194B
:100CC000A342256018BF5960636808BFC8F80010C8
:100CD00062514B60304600F02FF804F10B00231DE9
:100CE00020F00700C21A1CBF1B1AA350AFE76268AE
:100CF000A3420CBFC8F800205A60EBE723466468A3
:100D0000AEE73C467F68B6E71A465B68A342FBD174
:100D100000235360DEE70C233046336000F00CF80C
:100D200094E70560D6E700BFE00100200148FFF727
:100D300002BF00BFD80100200148FFF7FDBE00BF81
:100D4000D8010020936810B4013B002B936007DAB0
:100D50009469A34201DB0A2902D110BC00F06CBBEC
:100D60001368581C10601970084610BC7047F8B51D
:100D700006460F461446D518AC4201D1002007E0C4
:100D80003A46304614F8011BFFF7DCFF431CF3D151
:100D9000F8BD00002DE9F0470D4614461F460646F3
:100DA0009CB018B1036A0BB9FFF7C0FD6B6ED90791
:100DB00005D4AB899A0502D4A86DFFF7BCFEAB89B8
:100DC0001B0701D52B699BB92946304600F072FB01
:100DD00070B16B6EDC0704D54FF0FF301CB0BDE87E
:100DE000F087AB899805F7D4A86DFFF7A5FEF3E768
:100DF0000023099320238DF8293030234FF0010878
:100E00000397694F8DF82A302346994613F8012B32
:100E10000AB1252AF9D1B9EB040A0BD05346224670
:100E200029463046FFF7A3FF013000F0A480099A5D
:100E30005244099299F80030002B00F09C80002366
:100E40004FF0FF32CDE9052309F10109049307931F
:100E50008DF853301A934C46052214F8011B524862
:100E600000F08CFB049BD0B9D90644BF20228DF83A
:100E700053201A0744BF2B228DF8532099F80020E5
:100E80002A2A13D04C4600204FF00A0C079A21461C
:100E900011F8013B303B092B49D968B913E0C01B5D
:100EA00008FA00F01843A1460490D4E7039A111DF4
:100EB00012680391002A01DB079204E0524243F0DA
:100EC00002030792049323782E2B0AD163782A2BEE
:100ED00032D1039B02341A1D1B68039243EAE37369
:100EE0000593DFF8C89003224846217800F046FBBE
:100EF00038B14022049BA0EB090082401343013427
:100F0000049314F8011B062229488DF8281000F0DC
:100F100035FB00283ED0274818BB039B073323F03E
:100F2000070308330393099B034409936CE70C46BA
:100F300001200CFB0232AAE700234FF00A0C1946ED
:100F400001340593204610F8012B303A092A03D9C1
:100F5000002BC6D00591C4E7044601230CFB0121F8
:100F6000F0E703AB00932A463046134B04A9AFF3D6
:100F70000080431CD7D16B6ED90705D4AB899A0585
:100F800002D4A86DFFF7D8FDAB895B063FF524AF0F
:100F9000099823E703AB00932A463046064B04A981
:100FA00000F07EF8E5E700BF541700085A17000864
:100FB0005E170008000000006F0D00082DE9F047E3
:100FC000164698468A680B6907469342B8BF13468F
:100FD000336091F843200C46DDF820900AB10133CC
:100FE00033602368990642BF336802333360256853
:100FF00015F0060506D104F1190AE36832689B1A58
:10100000AB422BDC94F843302268003B18BF01232D
:10101000920630D44146384604F14302C8470130B5
:1010200023D02368226903F00603042B14BF002594
:1010300033684FF0000608BFE56804F11A0408BFE2
:10104000ED1A54F8123C08BF25EAE5759342C4BF77
:101050009B1AED18B5421AD1002008E00123524630
:1010600041463846C847013003D14FF0FF30BDE854
:10107000F0870135C1E73020E11881F843005A1CA0
:1010800094F845102244023382F84310C2E701234A
:10109000224641463846C8470130E6D00136D9E7F6
:1010A0002DE9F0430D7E85B0782D904607460C461D
:1010B00099460C9E01F1430207D8622D0AD8002DF3
:1010C00000F0D780582D00F0BC8004F1420684F86F
:1010D00042503BE0A5F16303152BF6D801A151F86E
:1010E00023F000BF3D11000851110008CB1000088B
:1010F000CB100008CB100008CB10000851110008DD
:10110000CB100008CB100008CB100008CB10000853
:10111000591200087B1100080B120008CB100008C0
:10112000CB1000087B120008CB1000087B110008D0
:10113000CB100008CB1000081312000833681A1DEA
:101140001B68326004F1420684F842300123A1E0BA
:1011500033682068191D3160060601D51D6803E05B
:101160004506FBD5B3F90050002D03DA2D236D425F
:1011700084F843300A235B4811E02168336808068D
:1011800053F8045B02D4490648BFADB23360237EF6
:1011900054486F2B5CD10823002184F84310666803
:1011A000002EA66005DB21682E4321F0040121609A
:1011B00050D01646B5FBF3F103FB115C10F80CC0E0
:1011C00006F801CDAC4663450D46F3D9082B0BD18B
:1011D0002368DB0708D5236961689942DEBF3023A5
:1011E00006F8013C06F1FF36921B22614346214678
:1011F0003846CDF8009003AAFFF7E0FE01304ED14B
:101200004FF0FF3005B0BDE8F083236843F02003C2
:1012100023607825344884F845502368316813F0FA
:10122000800F51F8045B03D113F0400F18BFADB22B
:101230003160D90744BF43F0200323601DB1102360
:10124000AAE72848E7E7236823F020032360F6E7AE
:101250000A23A1E71646B9E733682568181D6169B6
:1012600030602E061B6801D5196002E06806FBD5C8
:101270001980002316462361B8E7336800211A1D40
:1012800032601E686268304600F078F908B1801B51
:10129000606063682361002384F84330A6E7324628
:1012A000414638462369C8470130A9D023689B07C7
:1012B00013D4E068039B9842B8BF1846A2E7012305
:1012C000324641463846C847013099D00135E36877
:1012D00003995B1AAB42F2DCEBE7002504F1190637
:1012E000F5E700BF6517000876170008B1F90C2074
:1012F000F8B5160705460C4651D44B68002B02DCA6
:101300000B6C002B49DDE66A002E46D0002312F458
:1013100080522F682B6031D0626DA389590705D5A3
:101320006368D21A636B0BB1236CD21A0023284670
:10133000E66A216AB047421CB4F90C3006D129682C
:101340001D2945D8274ACA40D60741D500226260E8
:101350002269D904226004D5421C01D12B6803B94B
:101360006065616B2F60C1B104F14403994202D002
:101370002846FFF7F1FB002363630EE001232846B4
:10138000216AB0470246501CC7D12B68002BC4D03D
:101390001D2B01D0162B19D12F6000201DE00F69E5
:1013A000002FFAD0930718BF00230E6808BF4B69BF
:1013B000F61B0F608B60002EEFDD33463A46284661
:1013C000216AD4F828C0E047002807DCB4F90C30C3
:1013D0004FF0FF3043F04003A381F8BD0744361AB5
:1013E000E9E700BF0100402038B50B6905460C460F
:1013F00013B90025284638BD18B1036A0BB9FFF7A9
:1014000095FAB4F90C30002BF3D0626ED00704D4F7
:10141000990502D4A06DFFF78EFB28462146FFF701
:1014200065FF636E0546DA07E4D4A3899B05E1D422
:10143000A06DFFF781FBDDE7F8B50E4614460546C3
:1014400018B1036A0BB9FFF771FAA369A360A38906
:101450001A0701D5236943B92146284600F02AF826
:1014600018B14FF0FF373846F8BD23682269F6B24D
:10147000981A63693746834205DC21462846FFF700
:10148000B3FF0028EDD1A368013BA36023685A1C79
:1014900022601E706269431C9A4204D0A389DB0754
:1014A000E1D50A2EDFD121462846FFF79DFF00280F
:1014B000D9D0D6E738B5284B054618680C4618B180
:1014C000036A0BB9FFF732FAB4F90C301A0721D4CA
:1014D000D80607D409222A6043F040034FF0FF30BA
:1014E000A38130E0590712D5616B41B104F1440387
:1014F000994202D02846FFF72FFB002363630022A6
:10150000B4F90C306260226923F02403226043F0B6
:101510000803A38122693AB99A0501D5180603D5B3
:101520002146284600F05CF8B4F90C3013F00102B3
:101530000AD00022A26062695242A261226942B9C5
:1015400013F08000C8D138BD990758BF6269A26006
:10155000F4E70020F7E700BF0C00002038B50023B7
:10156000054D044608462B60FFF7F2F8431C02D1F4
:101570002B6803B1236038BDD4010020034610B5A9
:10158000C9B202449342184601D1002003E0047816
:1015900001338C42F6D110BD70B50C46B1F90E1076
:1015A000154600291E4696B00ADAA18911F080017D
:1015B00013D14FF48062002031602A6016B070BDF4
:1015C0006A4600F047F80028EFDB019901F470410A
:1015D000A1F5005359425941EBE700214022EAE7C7
:1015E0008B8973B59E0705460C4607D504F1470362
:1015F000236023610123636102B070BD01AB6A46C1
:10160000FFF7CAFF009E28463146FFF70FFBB4F9EB
:101610000C3038B99A05EFD423F0030343F00203EA
:10162000A381E3E743F08003A381019BC4E904069F
:101630002060002BE0D02846B4F90E1000F01CF812
:101640000028D9D0A38923F0030343F00103A38129
:10165000D2E7000038B50023064D0446084611467F
:101660002B60FFF750F8431C02D12B6803B12360B5
:1016700038BD00BFD401002038B50023054D044615
:1016800008462B60FFF74EF8431C02D12B6803B1CC
:10169000236038BDD4010020F8B500BFF8BC08BCF9
:1016A0009E467047F8B500BFF8BC08BC9E46704720
:1016B0000D0A5541525420496E697469616C697311
:1016C000656400000D0A53544D3332205374617227
:1016D0007465642E2E2E2E2E2E0000000D0A5379D6
:1016E000735469636B20496E697469616C697365D1
:1016F000640000000D0A4C454420496E697469611C
:101700006C697365640000000D0A43414E20496E08
:10171000697469616C697365640000005368656C85
:101720006C4D7367000000000D0A46756E637469A6
:101730006F6E696E672E2E2E2E0000000D0A526508
:10174000636569766564203A202573204020256C06
:10175000640D0A00232D302B2000686C4C00656658
:1017600067454647003031323334353637383941F2
:101770004243444546003031323334353637383908
:0817800061626364656600000C
:08178800E8E9FF7F0100000009
:0417900055010008F7
:041794003101000817
:101798000000000003000000980000201000002056
:1017A80000000000980000200001002068010020CF
:1017B8000000000000000000000000000000000021
:1017C8000000000000000000000000000000000011
:1017D8000000000000000000000000000000000001
:0C17E800000000000000000000000000F5
:04000005080007BD2B
:00000001FF
