:020000040800F2
:1000000000000220793F0008D13D0008D93D0008DA
:10001000E13D0008E93D0008F13D00080000000056
:100020000000000000000000000000005170000807
:10003000F93D000800000000B172000819730008C3
:10004000C93F0008C93F0008C93F0008C93F000870
:10005000C93F0008C93F0008C93F0008C93F000860
:10006000C93F0008C93F0008C93F0008C93F000850
:10007000C93F0008C93F0008C93F0008C93F000840
:10008000C93F0008C93F0008C93F0008C93F000830
:10009000FD470008C93F0008C93F0008C93F0008E4
:1000A000C93F0008C93F0008C93F0008C93F000810
:1000B000C93F0008314E0008C93F0008C93F000889
:1000C000C93F0008C93F0008C93F0008C93F0008F0
:1000D000C93F0008C93F0008C93F0008C93F0008E0
:1000E000C93F0008C93F0008C93F0008C93F0008D0
:1000F000C93F0008C93F0008C93F0008C93F0008C0
:10010000C93F0008C93F0008C93F0008C93F0008AF
:10011000C93F0008C93F0008093E0008C93F000860
:10012000C93F0008C93F0008C93F0008C93F00088F
:10013000C93F00080000000000000000C93F00089F
:10014000C93F0008C93F0008C93F0008C93F00086F
:10015000C93F0008C93F0008C93F0008C93F00085F
:10016000C93F0008C93F0008C93F0008C93F00084F
:10017000C93F0008C93F0008C93F0008000000004F
:1001800000000000C93F000800000000000000005F
:10019000C93F00080000000000000000C93F00083F
:1001A000000000000000000000000000C93F00083F
:1001B000C93F0008C93F0008C93F0008C93F0008FF
:0401C000C93F00082B
:1001D00010B5054C237833B9044B13B10448AFF381
:1001E00000800123237010BDD80100200000000012
:1001F00090CB000808B5034B1BB103490348AFF38C
:10020000008008BD00000000DC01002090CB000849
:1002100001F0FF01102A2BDB10F0070F08D010F8B7
:10022000013B013A8B422DD010F0070F42B3F6D1BB
:10023000F0B441EA012141EA014122F007047FF0D4
:1002400000070023F0E80256083C85EA010586EA2B
:10025000010685FA47F5A3FA87F586FA47F6A5FA67
:1002600087F68EB9EED1F0BC01F0FF0102F0070273
:1002700032B110F8013B013A83EA010313B1F8D11E
:100280000020704701387047002D06BF35460338FF
:10029000073815F0010F07D1013015F4807F02BF38
:1002A000013015F4C03F0130F0BC0138704700BF89
:1002B000034613F8012B002AFBD1181A01387047A6
:1002C00081F0004102E000BF83F0004330B54FEA07
:1002D00041044FEA430594EA050F08BF90EA020F74
:1002E0001FBF54EA000C55EA020C7FEA645C7FEA07
:1002F000655C00F0E2804FEA5454D4EB5555B8BF2A
:100300006D420CDD2C4480EA020281EA030382EA9A
:10031000000083EA010180EA020281EA0303362D2C
:1003200088BF30BD11F0004F4FEA01314FF4801CFF
:100330004CEA113102D0404261EB410113F0004F11
:100340004FEA03334CEA133302D0524263EB4303C8
:1003500094EA050F00F0A780A4F10104D5F1200E66
:100360000DDB02FA0EFC22FA05F2801841F10001C1
:1003700003FA0EF2801843FA05F359410EE0A5F195
:1003800020050EF1200E012A03FA0EFC28BF4CF0C6
:10039000020C43FA05F3C01851EBE37101F000457C
:1003A00007D54FF0000EDCF1000C7EEB00006EEB89
:1003B0000101B1F5801F1BD3B1F5001F0CD3490813
:1003C0005FEA30004FEA3C0C04F101044FEA44526A
:1003D00012F5800F80F09A80BCF1004F08BF5FEAF1
:1003E000500C50F1000041EB045141EA050130BDD1
:1003F0005FEA4C0C404141EB0101013C28BFB1F5E3
:10040000801FE9D291F0000F04BF01460020B1FA2D
:1004100081F308BF2033A3F10B03B3F120020CDA00
:100420000C3208DD02F1140CC2F10C0201FA0CF0DE
:1004300021FA02F10CE002F11402D8BFC2F1200C43
:1004400001FA02F120FA0CFCDCBF41EA0C019040F9
:10045000E41AA2BF01EB0451294330BD6FEA040442
:100460001F3C1CDA0C340EDC04F11404C4F120022D
:1004700020FA04F001FA02F340EA030021FA04F33F
:1004800045EA030130BDC4F10C04C4F1200220FA96
:1004900002F001FA04F340EA0300294630BD21FAD4
:1004A00004F0294630BD94F0000F83F4801306BF9A
:1004B00081F480110134013D4EE77FEA645C18BF8E
:1004C0007FEA655C29D094EA050F08BF90EA020F25
:1004D00005D054EA000C04BF1946104630BD91EA1D
:1004E000030F1EBF0021002030BD5FEA545C05D120
:1004F0004000494128BF41F0004130BD14F580045F
:100500003CBF01F5801130BD01F0004545F0FE41D2
:1005100041F470014FF0000030BD7FEA645C1ABF07
:10052000194610467FEA655C1CBF0B46024650EA3E
:10053000013406BF52EA033591EA030F41F400216A
:1005400030BD00BF90F0000F04BF0021704730B5F0
:100550004FF4806404F132044FF000054FF00001C5
:1005600050E700BF90F0000F04BF0021704730B586
:100570004FF4806404F1320410F0004548BF40425B
:100580004FF000013EE700BF42004FEAE2014FEAB0
:1005900031014FEA02701FBF12F07F4393F07F4F8B
:1005A00081F06051704732F07F4208BF704793F08E
:1005B0007F4F04BF41F40021704730B54FF46074A1
:1005C00001F0004521F000411CE700BF50EA0102A4
:1005D00008BF704730B54FF000050AE050EA01024D
:1005E00008BF704730B511F0004502D5404261EBBD
:1005F00041014FF4806404F132045FEA915C3FF4FE
:10060000D8AE4FF003025FEADC0C18BF03325FEA9A
:10061000DC0C18BF033202EBDC02C2F1200300FA4B
:1006200003FC20FA02F001FA03FE40EA0E0021FA70
:1006300002F11444BDE600BF70B54FF0FF0C4CF45E
:10064000E06C1CEA11541DBF1CEA135594EA0C0F10
:1006500095EA0C0F00F0DEF82C4481EA030621EA4B
:100660004C5123EA4C5350EA013518BF52EA033586
:1006700041F4801143F4801338D0A0FB02CE4FF038
:100680000005E1FB02E506F00042E0FB03E54FF068
:100690000006E1FB03569CF0000F18BF4EF0010E60
:1006A000A4F1FF04B6F5007F64F5407404D25FEA5C
:1006B0004E0E6D4146EB060642EAC62141EA55510F
:1006C0004FEAC52040EA5E504FEACE2EB4F1FD0C51
:1006D00088BFBCF5E06F1ED8BEF1004F08BF5FEACF
:1006E000500E50F1000041EB045170BD06F0004681
:1006F00046EA010140EA020081EA0301B4EB5C042E
:10070000C2BFD4EB0C0541EA045170BD41F4801125
:100710004FF0000E013C00F3AB8014F1360FDEBF4A
:10072000002001F0004170BDC4F10004203C35DA26
:100730000C341BDC04F11404C4F1200500FA05F3A9
:1007400020FA04F001FA05F240EA020001F000424A
:1007500021F0004110EBD37021FA04F642EB0601C0
:100760005EEA430E08BF20EAD37070BDC4F10C04EA
:10077000C4F1200500FA04F320FA05F001FA04F2AE
:1007800040EA020001F0004110EBD37041F100019A
:100790005EEA430E08BF20EAD37070BDC4F12005A5
:1007A00000FA05F24EEA020E20FA04F301FA05F20D
:1007B00043EA020321FA04F001F0004121FA04F2B5
:1007C00020EA020000EBD3705EEA430E08BF20EA85
:1007D000D37070BD94F0000F0FD101F000464000BF
:1007E00041EB010111F4801F08BF013CF7D041EA41
:1007F000060195F0000F18BF704703F00046520045
:1008000043EB030313F4801F08BF013DF7D043EA15
:100810000603704794EA0C0F0CEA135518BF95EACB
:100820000C0F0CD050EA410618BF52EA4306D1D152
:1008300081EA030101F000414FF0000070BD50EA71
:10084000410606BF1046194652EA430619D094EAFB
:100850000C0F02D150EA013613D195EA0C0F05D1E5
:1008600052EA03361CBF104619460AD181EA030139
:1008700001F0004141F0FE4141F470014FF00000F1
:1008800070BD41F0FE4141F4780170BD70B54FF08C
:10089000FF0C4CF4E06C1CEA11541DBF1CEA13550C
:1008A00094EA0C0F95EA0C0F00F0A7F8A4EB0504EE
:1008B00081EA030E52EA03354FEA013100F08880E5
:1008C0004FEA03334FF0805545EA131343EA1263AE
:1008D0004FEA022245EA111545EA10654FEA002663
:1008E0000EF000419D4208BF964244F1FD0404F51C
:1008F000407402D25B084FEA3202B61A65EB030578
:100900005B084FEA32024FF480104FF4002CB6EB34
:10091000020E75EB030E22BFB61A754640EA0C00B4
:100920005B084FEA3202B6EB020E75EB030E22BFF4
:10093000B61A754640EA5C005B084FEA3202B6EB35
:10094000020E75EB030E22BFB61A754640EA9C00F4
:100950005B084FEA3202B6EB020E75EB030E22BFC4
:10096000B61A754640EADC0055EA060E18D04FEA82
:10097000051545EA16754FEA06164FEAC30343EA22
:1009800052734FEAC2025FEA1C1CC0D111F4801FEF
:100990000BD141EA00014FF000004FF0004CB6E7E8
:1009A00011F4801F04BF01430020B4F1FD0C88BF87
:1009B000BCF5E06F3FF6AFAEB5EB030C04BFB6EB92
:1009C000020C5FEA500C50F1000041EB045170BD85
:1009D0000EF0004E4EEA113114EB5C04C2BFD4EBB2
:1009E0000C0541EA045170BD41F480114FF0000E36
:1009F000013C90E645EA060E8DE60CEA135594EAB2
:100A00000C0F08BF95EA0C0F3FF43BAF94EA0C0FB4
:100A10000AD150EA01347FF434AF95EA0C0F7FF429
:100A200025AF104619462CE795EA0C0F06D152EA7D
:100A300003353FF4FDAE1046194622E750EA410661
:100A400018BF52EA43067FF4C5AE50EA41047FF472
:100A50000DAF52EA43057FF4EBAE12E74FF0FF3CD7
:100A600006E000BF4FF0010C02E000BF4FF0010CA8
:100A70004DF804CD4FEA410C7FEA6C5C4FEA430C21
:100A800018BF7FEA6C5C1BD001B050EA410C0CBF70
:100A900052EA430C91EA030F02BF90EA020F0020D2
:100AA000704710F1000F91EA030F58BF994208BF39
:100AB00090422CBFD8176FEAE37040F001007047F6
:100AC0004FEA410C7FEA6C5C02D150EA013C07D14D
:100AD0004FEA430C7FEA6C5CD6D152EA033CD3D098
:100AE0005DF8040B704700BF8446104662468C4692
:100AF0001946634600E000BF01B5FFF7B7FF0028C5
:100B000048BF10F1000F01BD4DF808EDFFF7F4FFED
:100B10000CBF012000205DF808FB00BF4DF808ED78
:100B2000FFF7EAFF34BF012000205DF808FB00BF9B
:100B30004DF808EDFFF7E0FF94BF012000205DF8BD
:100B400008FB00BF4DF808EDFFF7CEFF94BF012072
:100B500000205DF808FB00BF4DF808EDFFF7C4FF6B
:100B600034BF012000205DF808FB00BF4FEA410CB4
:100B70007FEA6C5C02D150EA013C0AD14FEA430C97
:100B80007FEA6C5C02D152EA033C02D14FF00000D4
:100B900070474FF0010070474FEA410212F5001212
:100BA00015D211D56FF47873B3EB625212D94FEAB4
:100BB000C12343F0004343EA505311F0004F23FA9E
:100BC00002F018BF404270474FF00000704750EAF3
:100BD000013005D111F0004008BF6FF000407047B0
:100BE0004FF00000704700BF4A0011D212F500120A
:100BF00011D20DD56FF47873B3EB62520ED44FEA75
:100C0000C12343F0004343EA505323FA02F07047F4
:100C10004FF00000704750EA013002D14FF0FF3032
:100C200070474FF0000070474FEA4102B2F1E043D5
:100C300024BFB3F5001CDCF1FE5C0DD901F0004CC3
:100C40004FEAC0024CEA5070B2F1004F40EB830013
:100C500008BF20F00100704711F0804F21D113F13F
:100C60003872BCBF01F00040704741F480114FEA78
:100C70005252C2F11802C2F1200C10FA0CF320FA01
:100C800002F018BF40F001004FEAC1234FEAD3231E
:100C900003FA0CFC40EA0C0023FA02F34FEA430388
:100CA000CCE77FEA625307D150EA01331EBF4FF011
:100CB000FE4040F44000704701F0004040F0FE402C
:100CC00040F40000704700BF38B5002200230446FE
:100CD0000D46FFF723FF28B920462946BDE83840D6
:100CE00000F00AB8204605F1004100F005F8404246
:100CF00061EB410138BD00BFD0B50C4B0022064668
:100D00000F46FFF799FCFFF76FFF0446FFF71AFC49
:100D1000074B0022FFF790FC02460B46304639464F
:100D2000FFF7D2FAFFF760FF2146D0BD0000F03D8B
:100D30000000F04180B489B000AFF8600B467A60E3
:100D40007B810023FB6143E0FB695B007A6813440D
:100D50001B889B089BB2BB61FB6901335B007A680F
:100D600013441B889B089BB27B61BB699B00FA689C
:100D700013441B683B617B699B00FA681A44BB699A
:100D80009B00F9680B4412681A607B699B00FA6843
:100D900013443A691A60BB6901339B00FA68134433
:100DA0001B683B617B6901339B00FA681A44BB698D
:100DB00001339B00F9680B4412681A607B690133A8
:100DC0009B00FA6813443A691A60FB690233FB61BD
:100DD0007B89FA699A42B7D300BF00BF2437BD466A
:100DE0005DF8047B704780B5A0B000AF78603960D3
:100DF0007B681B88BB66BB6E9B003A6813447B67AD
:100E00007B685B683B673B687B667B6F3B66BB6E62
:100E10005B08BB66BB6E9B003A681344FB67BB6E06
:100E20009B007A6F1344BB67BB6E9B08FB66B6E101
:100E30003B681B68BB633B685B68FB633B689B6804
:100E40003B643B68DB687B647B6F1B68BB627B6FCA
:100E50005B68FB627B6F9B683B637B6FDB687B63DC
:100E6000FB6F1B68BB61FB6F5B68FB61FB6F9B6883
:100E70003B62FB6FDB687B62BB6F1B68BB60BB6F59
:100E80005B68FB60BB6F9B683B61BB6FDB687B6132
:100E900097ED0E7AD7ED0A7A3B681A1D3A6077EE25
:100EA000277AC3ED007A97ED0F7AD7ED0B7A3B687E
:100EB0001A1D3A6077EE277AC3ED007A97ED107A23
:100EC000D7ED0C7A3B681A1D3A6077EE277AC3EDAE
:100ED000007A97ED117AD7ED0D7A3B681A1D3A60CA
:100EE00077EE277AC3ED007A97ED0E7AD7ED0A7A7E
:100EF00077EE677AC7ED0A7A97ED0F7AD7ED0B7A1E
:100F000077EE677AC7ED0B7A97ED107AD7ED0C7A0A
:100F100077EE677AC7ED0C7A97ED117AD7ED0D7AF7
:100F200077EE677AC7ED0D7A97ED067AD7ED027AFC
:100F3000FB6F1A1DFA6777EE277AC3ED007A97EDFB
:100F4000077AD7ED037AFB6F1A1DFA6777EE277AD7
:100F5000C3ED007A97ED087AD7ED047AFB6F1A1D7E
:100F6000FA6777EE277AC3ED007A97ED097AD7ED25
:100F7000057AFB6F1A1DFA6777EE277AC3ED007AC0
:100F800097ED027AD7ED067A77EE677AC7ED027AA7
:100F900097ED037AD7ED077A77EE677AC7ED037A94
:100FA00097ED047AD7ED087A77EE677AC7ED047A81
:100FB00097ED057AD7ED097A77EE677AC7ED057A6E
:100FC0003B6F1A1D3A671B68FB653B6F1A1D3A673A
:100FD0001B68BB65D7ED0A7A97ED177A67EE277A1B
:100FE000C7ED157AD7ED0B7A97ED167A67EE277A6B
:100FF000C7ED147AD7ED0B7A97ED177A67EE277A5B
:10100000C7ED137AD7ED0A7A97ED167A67EE277A4D
:10101000C7ED127A7B6F1A1D7A6797ED157AD7EDB7
:10102000147A77EE277AC3ED007A7B6F1A1D7A6700
:1010300097ED137AD7ED127A77EE677AC3ED007ADF
:10104000D7ED027A97ED167A67EE277AC7ED157A13
:10105000D7ED037A97ED177A67EE277AC7ED147A02
:10106000D7ED037A97ED167A67EE277AC7ED137AF4
:10107000D7ED027A97ED177A67EE277AC7ED127AE5
:10108000BB6F1A1DBA6797ED157AD7ED147A77EE14
:10109000677AC3ED007ABB6F1A1DBA6797ED137AB2
:1010A000D7ED127A77EE277AC3ED007A3B6F1A1DDF
:1010B0003A671B68FB653B6F1A1D3A671B68BB6587
:1010C000D7ED0C7A97ED177A67EE277AC7ED157A88
:1010D000D7ED0D7A97ED167A67EE277AC7ED147A79
:1010E000D7ED0D7A97ED177A67EE277AC7ED137A69
:1010F000D7ED0C7A97ED167A67EE277AC7ED127A5C
:101100007B6F1A1D7A6797ED157AD7ED147A77EE13
:10111000277AC3ED007A7B6F1A1D7A6797ED137AF1
:10112000D7ED127A77EE677AC3ED007AD7ED047ABD
:1011300097ED167A67EE277AC7ED157AD7ED057A1F
:1011400097ED177A67EE277AC7ED147AD7ED057A0F
:1011500097ED167A67EE277AC7ED137AD7ED047A02
:1011600097ED177A67EE277AC7ED127ABB6F1A1DD3
:10117000BA6797ED157AD7ED147A77EE677AC3EDF3
:10118000007ABB6F1A1DBA6797ED137AD7ED127A02
:1011900077EE277AC3ED007AFB6E013BFB66FB6EB0
:1011A000002B7FF445AEBB6E99B27B685A68022370
:1011B000786E01F00FF8BB6E99B27B685A68022313
:1011C000386E01F007F800BF8037BD4680BD80B59E
:1011D000ACB000AF786039607B681B885B089BB25D
:1011E000C7F88030D7F880309B003A681344C7F8BE
:1011F0009030D7F880309B00D7F890201344C7F880
:101200008C30D7F880309B00D7F88C201344C7F877
:1012100088303B68FB67D7F89030BB67D7F88C30D5
:101220007B67D7F888303B67D7F89030043BC7F826
:10123000AC30D7F88C30043BC7F8A830D7F88830EA
:10124000043BC7F8A430D7F880309B00D7F8A4201F
:101250001344C7F8A0307B685B68C7F89430D7F8B0
:101260009430C7F89830D7F89830C7F89C30D7F842
:1012700080305B08C7F880300223FB660423BB661E
:1012800006237B663B6893ED007AD7F88C30D3ED6C
:10129000007A77EE277AC7ED187A3B6893ED007AEB
:1012A000D7F88C30D3ED007A77EE677AC7ED177AEE
:1012B0003B68043393ED007AD7F88C300433D3EDD8
:1012C000007A77EE277AC7ED167A3B68043393ED00
:1012D000007AD7F88C300433D3ED007A77EE677A52
:1012E000C7ED157AD7F89030043393ED007AD7ED37
:1012F000177A37EE277AD7F888300433D3ED007A9F
:1013000077EE677AC7ED0B7AD7F89030D3ED007A95
:1013100097ED157A37EE677AD7F88830D3ED007AF3
:1013200077EE277AC7ED0C7AD7F89030D3ED007AB4
:1013300097ED187A37EE677AD7F88830D3ED007AD0
:1013400077EE677AC7ED077AD7F890300433D3ED9C
:10135000007A97ED167A37EE677AD7F8883004333B
:10136000D3ED007A77EE677AC7ED087AD7F8903038
:101370000433D3ED007A97ED177A37EE677AD7F812
:1013800088300433D3ED007A77EE277AC7ED037AFD
:10139000D7F8903093ED007AD7ED157A37EE277AAB
:1013A000D7F88830D3ED007A77EE677AC7ED047A04
:1013B000D7F8903093ED007AD7ED187A37EE277A88
:1013C000D7F88830D3ED007A3B681A1D3A6077EE83
:1013D000277AC3ED007AD7F89030043393ED007A82
:1013E000D7ED167A37EE277AD7F888300433D3ED65
:1013F000007A3B681A1D3A6077EE277AC3ED007ACF
:10140000D7F890301A1DC7F89020FA6A1A60D7F8FA
:1014100090301A1DC7F890203A6B1A60D7F88C30BC
:101420001A1DC7F88C20FA691A60D7F88C301A1D7B
:10143000C7F88C203A6A1A60D7F888301A1DC7F8A6
:101440008820FA681A60D7F888301A1DC7F88820F3
:101450003A691A60FB6E9B00D7F89C201344C7F8CA
:101460009C30BB6E9B00D7F898201344C7F8983087
:101470007B6E9B00D7F894201344C7F89430D7F8BC
:101480008030023B5B08C7F884301CE33B6893ED77
:10149000007AD7F88C30D3ED007A77EE277AC7ED53
:1014A000187A3B6893ED007AD7F88C30D3ED007A48
:1014B00077EE677AC7ED177A3B68043393ED007ACD
:1014C000D7F88C300433D3ED007A77EE277AC7ED66
:1014D000167A3B68043393ED007AD7F88C300433E6
:1014E000D3ED007A77EE677AC7ED157AD7F89030AA
:1014F000043393ED007AD7ED177A37EE277AD7F8D1
:1015000088300433D3ED007A77EE677AC7ED0B7A33
:10151000D7F89030D3ED007A97ED157A37EE677AE9
:10152000D7F88830D3ED007A77EE277AC7ED0C7ABA
:10153000D7F89030D3ED007A97ED187A37EE677AC6
:10154000D7F88830D3ED007A77EE677AC7ED077A5F
:10155000D7F890300433D3ED007A97ED167A37EE52
:10156000677AD7F888300433D3ED007A77EE677A5C
:10157000C7ED087AD7F890300433D3ED007A97EDB1
:10158000177A37EE677AD7F888300433D3ED007ACC
:1015900077EE277AC7ED037AD7F8903093ED007A8B
:1015A000D7ED157A37EE277AD7F88830D3ED007A61
:1015B00077EE677AC7ED047AD7F8903093ED007A2A
:1015C000D7ED187A37EE277AD7F88830D3ED007A3E
:1015D0003B681A1D3A6077EE277AC3ED007AD7F898
:1015E0009030043393ED007AD7ED167A37EE277AF0
:1015F000D7F888300433D3ED007A3B681A1D3A607F
:1016000077EE277AC3ED007AD7F8AC30043B93ED40
:10161000007AD7F8A430043BD3ED007A77EE277A2E
:10162000C7ED167AD7F8AC30043B93ED007AD7F8C3
:10163000A430043BD3ED007A77EE677AC7ED157AD4
:10164000D7F8AC3093ED007AD7F8A430D3ED007A18
:1016500077EE277AC7ED187AD7F8AC3093ED007A99
:10166000D7F8A430D3ED007A77EE677AC7ED177A12
:10167000D7F8A83093ED007AD7F8A030D3ED007AF0
:1016800037EE677AD7ED157A77EE277AC7ED0D7AC0
:10169000D7F8AC3093ED007AD7F8A430D3ED007AC8
:1016A00037EE677AD7F8A830043BD3ED007A37EEEF
:1016B000677AD7F8A030043BD3ED007A77EE277A2B
:1016C000C7ED0E7AD7F8A830043BD3ED007A97ED3A
:1016D000167A37EE677AD7F8A030043BD3ED007A5C
:1016E00077EE677AC7ED097AD7F8A830D3ED007A9C
:1016F00097ED187A37EE677AD7F8A030D3ED007AF5
:1017000077EE677AC7ED0A7AD7F8A83093ED007ABA
:10171000D7F8A030D3ED007A37EE677AD7ED157A97
:1017200077EE677AC7ED057AD7F8A030043B93EDE2
:10173000007AD7F8A830043BD3ED007A37EE677A09
:10174000D7ED177A77EE677AC7ED067AD7F8A83023
:1017500093ED007AD7ED187A37EE277AD7F8A030D4
:10176000D3ED007AD7F8AC301A1FC7F8AC2077EE6B
:10177000277AC3ED007AD7F8A830043B93ED007ABE
:10178000D7ED167A37EE277AD7F8A030043BD3EDA1
:10179000007AD7F8AC301A1FC7F8AC2077EE277A5A
:1017A000C3ED007AD7F89C301A1DC7F89C201B683F
:1017B0003B65D7F89C301A1DC7F89C201B68FB645A
:1017C000D7ED0B7A97ED147A67EE277AC7ED127A88
:1017D000D7ED0C7A97ED137A67EE277AC7ED117A79
:1017E000D7ED0C7A97ED147A67EE277AC7ED107A69
:1017F000D7ED0B7A97ED137A67EE277AC7ED0F7A5C
:10180000D7F890301A1DC7F8902097ED127AD7EDCF
:10181000117A77EE277AC3ED007AD7F890301A1D47
:10182000C7F8902097ED107AD7ED0F7A77EE677AA8
:10183000C3ED007AD7ED0E7A97ED137A67EE277A2B
:10184000C7ED127AD7ED0D7A97ED147A67EE277A05
:10185000C7ED117AD7ED0D7A97ED137A67EE277AF7
:10186000C7ED107AD7ED0E7A97ED147A67EE277AE6
:10187000C7ED0F7AD7F8A8301A1FC7F8A82097ED40
:10188000127AD7ED117A77EE677AC3ED007AD7F83E
:10189000A8301A1FC7F8A82097ED107AD7ED0F7A55
:1018A00077EE277AC3ED007AD7F898301B683B654E
:1018B000D7F8983004331B68FB64BB6E9B00D7F8E5
:1018C00098201344C7F89830D7ED077A97ED147A2B
:1018D00067EE277AC7ED127AD7ED087A97ED137A7B
:1018E00067EE277AC7ED117AD7ED087A97ED147A6B
:1018F00067EE277AC7ED107AD7ED077A97ED137A5E
:1019000067EE277AC7ED0F7AD7F88C301A1DC7F823
:101910008C2097ED127AD7ED117A77EE277AC3ED06
:10192000007AD7F88C301A1DC7F88C2097ED107A02
:10193000D7ED0F7A77EE677AC3ED007AD7ED0A7AA2
:10194000F1EE677A97ED147A67EE277AC7ED127A8F
:10195000D7ED097A97ED137A67EE277AC7ED117AFA
:10196000D7ED097A97ED147A67EE277AC7ED107AEA
:10197000D7ED0A7A97ED137A67EE277AC7ED0F7ADB
:10198000D7F8A4301A1FC7F8A42097ED127AD7ED24
:10199000117A77EE677AC3ED007AD7F8A4301A1F70
:1019A000C7F8A42097ED0F7AD7ED107A77EE677A13
:1019B000C3ED007AD7F894301B683B65D7F89430B4
:1019C00004331B68FB647B6E9B00D7F894201344A0
:1019D000C7F89430D7ED037A97ED147A67EE277A3B
:1019E000C7ED127AD7ED047A97ED137A67EE277A6E
:1019F000C7ED117AD7ED047A97ED147A67EE277A5E
:101A0000C7ED107AD7ED037A97ED137A67EE277A50
:101A1000C7ED0F7AD7F888301A1DC7F8882097EDE0
:101A2000127AD7ED117A77EE277AC3ED007AD7F8DC
:101A300088301A1DC7F8882097ED107AD7ED0F7AF5
:101A400077EE677AC3ED007AD7ED067A97ED137AD1
:101A500067EE277AC7ED127AD7ED057A97ED147AFB
:101A600067EE277AC7ED117AD7ED057A97ED137AED
:101A700067EE277AC7ED107AD7ED067A97ED147ADC
:101A800067EE277AC7ED0F7AD7F8A0301A1FC7F88C
:101A9000A02097ED127AD7ED117A77EE677AC3ED31
:101AA000007AD7F8A0301A1FC7F8A02097ED107A57
:101AB000D7ED0F7A77EE277AC3ED007AD7F8843026
:101AC000013BC7F88430D7F88430002B7FF4DEACBC
:101AD0003B6893ED007AD7F88C30D3ED007A77EE3F
:101AE000277AC7ED187A3B6893ED007AD7F88C30E7
:101AF000D3ED007A77EE677AC7ED177A3B68043347
:101B000093ED007AD7F88C300433D3ED007A77EE7A
:101B1000277AC7ED167A3B68043393ED007AD7F83D
:101B20008C300433D3ED007A77EE677AC7ED157AFF
:101B3000D7F89030043393ED007AD7ED177A37EE6B
:101B4000277AD7F888300433D3ED007A77EE677AB6
:101B5000C7ED0B7AD7F89030D3ED007A97ED157A70
:101B600037EE677AD7F88830D3ED007A77EE277AA8
:101B7000C7ED0C7AD7F89030D3ED007A97ED187A4C
:101B800037EE677AD7F88830D3ED007A77EE677A48
:101B9000C7ED077AD7F890300433D3ED007A97ED8C
:101BA000167A37EE677AD7F888300433D3ED007AA7
:101BB00077EE677AC7ED087AD7F890300433D3ED23
:101BC000007A97ED177A37EE677AD7F888300433C2
:101BD000D3ED007A77EE277AC7ED037AD7F8903005
:101BE00093ED007AD7ED157A37EE277AD7F888305B
:101BF000D3ED007A77EE677AC7ED047AD7F89030A4
:101C000093ED007AD7ED187A37EE277AD7F8883037
:101C1000D3ED007A3B681A1D3A6077EE277AC3ED60
:101C2000007AD7F89030043393ED007AD7ED167A26
:101C300037EE277AD7F888300433D3ED007A3B6843
:101C40001A1D3A6077EE277AC3ED007AD7F89C30F8
:101C50001B683B65D7F89C3004331B68FB64D7EDE9
:101C60000B7A97ED147A67EE277AC7ED127AD7EDE3
:101C70000C7A97ED137A67EE277AC7ED117AD7EDD4
:101C80000C7A97ED147A67EE277AC7ED107AD7EDC4
:101C90000B7A97ED137A67EE277AC7ED0F7AD7F8AC
:101CA00090301A1DC7F8902097ED127AD7ED117A6F
:101CB00077EE277AC3ED007AD7F890301A1DC7F86F
:101CC000902097ED107AD7ED0F7A77EE677AC3ED13
:101CD000007AD7F898301B683B65D7F89830043302
:101CE0001B68FB64D7ED077A97ED147A67EE277AC5
:101CF000C7ED127AD7ED087A97ED137A67EE277A57
:101D0000C7ED117AD7ED087A97ED147A67EE277A46
:101D1000C7ED107AD7ED077A97ED137A67EE277A39
:101D2000C7ED0F7AD7F88C301A1DC7F88C2097EDC5
:101D3000127AD7ED117A77EE277AC3ED007AD7F8C9
:101D40008C301A1DC7F88C2097ED107AD7ED0F7ADA
:101D500077EE677AC3ED007AD7F894301B683B655D
:101D6000D7F8943004331B68FB64D7ED037A97ED02
:101D7000147A67EE277AC7ED127AD7ED047A97EDD9
:101D8000137A67EE277AC7ED117AD7ED047A97EDCB
:101D9000147A67EE277AC7ED107AD7ED037A97EDBC
:101DA000137A67EE277AC7ED0F7AD7F888301A1DB5
:101DB000C7F8882097ED127AD7ED117A77EE277A57
:101DC000C3ED007AD7F888301A1DC7F8882097ED40
:101DD000107AD7ED0F7A77EE677AC3ED007AD7F8ED
:101DE000803099B27B685A680423F86F00F0F2F9EA
:101DF000D7F8803099B27B685A680423B86F00F036
:101E0000E9F9D7F8803099B27B685A680423786F73
:101E100000F0E0F9D7F8803099B27B685A68042363
:101E2000386F00F0D7F900BFB037BD4680BD80B530
:101E300088B000AFF860B96011461A460B46FB71D6
:101E40001346BB71FB681B887B61FB79012B17D1A3
:101E5000BB680433BB610023FB610DE0BB69D3EDBC
:101E6000007AF1EE677ABB69C3ED007ABB6908338B
:101E7000BB61FB690133FB61FA697B699A42EDD36F
:101E80007B69B3F5805F40D07B69B3F5805F45D84F
:101E90007B69B3F5006F33D07B69B3F5006F3DD834
:101EA0007B69B3F5806F26D07B69B3F5806F35D839
:101EB0007B69B3F5007F28D07B69B3F5007F2DD80F
:101EC0007B69B3F5807F1BD07B69B3F5807F25D814
:101ED0007B69802B0FD07B69802B1FD87B69402BBF
:101EE00013D07B69402B19D87B69102B03D07B69F9
:101EF000202B05D012E0B968F868FEF774FF0DE0FA
:101F0000B968F868FFF763F908E07B6999B2FB6884
:101F10005A680123B86800F05DF900BFBB79002B57
:101F200007D0FB689989FB689B681A46B868FEF77A
:101F300001FFFB79012B30D17B6907EE903AB8EEB7
:101F4000677AF7EE006AC6EE877AC7ED047ABB6857
:101F5000BB610023FB611CE0BB691A1DBA6193EDF4
:101F6000007AD7ED047A67EE277AC3ED007ABB6971
:101F7000D3ED007AB1EE677AD7ED047A67EE277A6F
:101F8000BB69C3ED007ABB690433BB61FB690133F4
:101F9000FB61FA697B699A42DED300BF2037BD46F8
:101FA00080BD000080B485B000AF78600023FB7373
:101FB0007B684FF400621A807B6800225A600A4BEB
:101FC0009A897B689A81084B9A687B689A60064B6D
:101FD0005A687B685A6097F90F3018461437BD4627
:101FE0005DF8047B704700BFB001020880B485B083
:101FF00000AF78600023FB737B684FF480621A8027
:102000007B6800225A600A4B9A897B689A81084B48
:102010009A687B689A60064B5A687B685A6097F9A1
:102020000F3018461437BD465DF8047B704700BF7B
:10203000A001020880B485B000AF78600023FB7374
:102040007B684FF400721A807B6800225A600A4B4A
:102050009A897B689A81084B9A687B689A60064BDC
:102060005A687B685A6097F90F3018461437BD4696
:102070005DF8047B704700BF9001020880B485B012
:1020800000AF78600023FB737B684FF480721A8086
:102090007B6800225A600A4B9A897B689A81084BB8
:1020A0009A687B689A60064B5A687B685A6097F911
:1020B0000F3018461437BD465DF8047B704700BFEB
:1020C0008001020880B485B000AF78600023FB7304
:1020D0007B6880221A807B6800225A60094B9A89AB
:1020E0007B689A81074B9A687B689A60054B5A68AF
:1020F0007B685A6097F90F3018461437BD465DF873
:10210000047B70477001020880B485B000AF78602E
:102110000023FB737B6840221A807B6800225A6090
:10212000094B9A897B689A81074B9A687B689A6009
:10213000054B5A687B685A6097F90F301846143778
:10214000BD465DF8047B70476001020880B485B02D
:1021500000AF78600023FB737B6820221A807B68C5
:1021600000225A60094B9A897B689A81074B9A68CA
:102170007B689A60054B5A687B685A6097F90F3004
:1021800018461437BD465DF8047B704750010208BD
:1021900080B485B000AF78600023FB737B681022A9
:1021A0001A807B6800225A60094B9A897B689A8161
:1021B000074B9A687B689A60054B5A687B685A603F
:1021C00097F90F3018461437BD465DF8047B704709
:1021D0004001020880B4BDB000AFF8607A601A46D2
:1021E0000B467B8113463B81094BC7F8DC307B896A
:1021F000C7F8E430D7F8E430C7F8D830D7F8E4307F
:10220000DB08C7F8E4300023C7F8E83002E000BF7D
:10221000F304353FD7F8E820D7F8E4301344C7F883
:10222000D430D7F8D420D7F8E4301344C7F8D030EE
:10223000D7F8D020D7F8E4301344C7F8CC30D7F81B
:10224000CC20D7F8E4301344C7F8C830D7F8C820FA
:10225000D7F8E4301344C7F8C430D7F8C420D7F80F
:10226000E4301344C7F8C030D7F8C020D7F8E430C2
:102270001344C7F8BC30D7F8E830DB00FA681344E1
:1022800093ED007AD7F8C830DB00FA681344D3ED39
:10229000007A77EE277AC7ED2E7AD7F8E830DB00A0
:1022A000FA68134493ED007AD7F8C830DB00FA6877
:1022B0001344D3ED007A77EE677AC7ED2D7AD7F81D
:1022C000D430DB00FA68134493ED007AD7F8C430B9
:1022D000DB00FA681344D3ED007A77EE277AC7ED76
:1022E0002C7AD7F8D430DB00FA68134493ED007AE7
:1022F000D7F8C430DB00FA681344D3ED007A77EEE8
:10230000677AC7ED2B7AD7F8D030DB00FA68134430
:1023100093ED007AD7F8C030DB00FA681344D3EDB0
:10232000007A77EE277AC7ED2A7AD7F8D030DB002B
:10233000FA68134493ED007AD7F8C030DB00FA68EE
:102340001344D3ED007A77EE677AC7ED297AD7F890
:10235000CC30DB00FA68134493ED007AD7F8BC3038
:10236000DB00FA681344D3ED007A77EE277AC7EDE5
:10237000287AD7F8CC30DB00FA68134493ED007A62
:10238000D7F8BC30DB00FA681344D3ED007A77EE5F
:10239000677AC7ED277A97ED2E7AD7ED2A7A77EE0E
:1023A000677AC7ED267A97ED2E7AD7ED2A7A77EEFF
:1023B000277AC7ED2E7A97ED2C7AD7ED287A77EE2B
:1023C000677AC7ED2A7A97ED2C7AD7ED287A77EEDF
:1023D000277AC7ED2C7AD7F8E830DB00FA68134487
:1023E00097ED2E7AD7ED2C7A77EE277AC3ED007A27
:1023F000D7F8C830DB00FA68134497ED2E7AD7ED92
:102400002C7A77EE677AC3ED007AD7F8E830DB00F4
:102410000433FA68134493ED007AD7F8C830DB0030
:102420000433FA681344D3ED007A77EE277AC7EDC8
:102430002E7AD7F8E830DB000433FA68134493EDC2
:10244000007AD7F8C830DB000433FA681344D3EDC0
:10245000007A77EE677AC7ED257AD7F8D430DB00BB
:102460000433FA68134493ED007AD7F8C430DB00E4
:102470000433FA681344D3ED007A77EE277AC7ED78
:102480002C7AD7F8D430DB000433FA68134493ED88
:10249000007AD7F8C430DB000433FA681344D3ED74
:1024A000007A77EE677AC7ED247AD7F8D030DB0070
:1024B0000433FA68134493ED007AD7F8C030DB0098
:1024C0000433FA681344D3ED007A77EE277AC7ED28
:1024D000237AD7F8D030DB000433FA68134493ED45
:1024E000007AD7F8C030DB000433FA681344D3ED28
:1024F000007A77EE677AC7ED227AD7F8CC30DB0026
:102500000433FA68134493ED007AD7F8BC30DB004B
:102510000433FA681344D3ED007A77EE277AC7EDD7
:10252000287AD7F8CC30DB000433FA68134493EDF3
:10253000007AD7F8BC30DB000433FA681344D3EDDB
:10254000007A77EE677AC7ED217A97ED2E7AD7ED8C
:10255000237A77EE677AC7ED207A97ED2E7AD7ED5A
:10256000237A77EE277AC7ED2E7A97ED2C7AD7ED7E
:10257000287A77EE677AC7ED237A97ED2C7AD7ED34
:10258000287A77EE277AC7ED2C7AD7F8E830DB0087
:102590000433FA68134497ED2E7AD7ED2C7A77EE50
:1025A000277AC3ED007AD7F8C830DB000433FA6825
:1025B000134497ED2E7AD7ED2C7A77EE677AC3ED38
:1025C000007AD7F8D030DB00FA68134497ED267A0A
:1025D000D7ED237A77EE277AC3ED007AD7F8C030AB
:1025E000DB00FA68134497ED267AD7ED237A77EE6D
:1025F000677AC3ED007AD7F8D030DB000433FA688D
:10260000134497ED207AD7ED2A7A77EE677AC3EDF7
:10261000007AD7F8C030DB000433FA68134497ED32
:10262000207AD7ED2A7A77EE277AC3ED007A97EDF4
:102630002B7AD7ED277A77EE677A97ED377A67EEC0
:10264000277AC7ED2E7A97ED2B7AD7ED277A77EE9A
:10265000277A97ED377A67EE277AC7ED2B7A97EDD1
:10266000247AD7ED217A77EE677A97ED377A67EE9D
:10267000277AC7ED2C7A97ED247AD7ED217A77EE79
:10268000277A97ED377A67EE277AC7ED247A97EDA8
:102690002D7AD7ED2E7A77EE677AC7ED267A97ED09
:1026A0002D7AD7ED2E7A77EE277AC7ED2D7A97ED32
:1026B000297AD7ED2B7A77EE677AC7ED277A97EDEF
:1026C000297AD7ED2B7A77EE277AC7ED297A97ED1D
:1026D000257AD7ED2C7A77EE677AC7ED207A97EDD9
:1026E000257AD7ED2C7A77EE277AC7ED257A97ED04
:1026F000227AD7ED247A77EE677AC7ED217A97EDC3
:10270000227AD7ED247A77EE277AC7ED227AD7F8A6
:10271000D430DB00FA68134497ED2D7AD7ED227A96
:1027200077EE277AC3ED007AD7F8BC30DB00FA6881
:10273000134497ED2D7AD7ED227A77EE677AC3EDC1
:10274000007AD7F8C430DB00FA68134497ED267A94
:10275000D7ED217A77EE277AC3ED007AD7F8CC301F
:10276000DB00FA68134497ED267AD7ED217A77EEED
:10277000677AC3ED007AD7F8D430DB000433FA6807
:10278000134497ED257AD7ED297A77EE677AC3ED72
:10279000007AD7F8BC30DB000433FA68134497EDB5
:1027A000257AD7ED297A77EE277AC3ED007AD7F824
:1027B000C430DB000433FA68134497ED207AD7ED78
:1027C000277A77EE677AC3ED007AD7F8CC30DB0052
:1027D0000433FA68134497ED207AD7ED277A77EE21
:1027E000277AC3ED007AD7F8E820D7F8D830134419
:1027F000C7F8E8307B89D7F8E8209A42FFF40AADA1
:10280000D7F8E430072B40F2E3840023C7F8EC301C
:102810000123C7F8E0303B89D7F8EC201344FB676D
:10282000FB6FC7F8EC30D7F8EC20FB6F1344BB67A5
:10283000BA6FFB6F13447B677A6FFB6F13443B6780
:102840003A6FFB6F1344FB66FA6EFB6F1344BB6673
:10285000BA6EFB6F13447B66D7F8EC30DB007A6806
:1028600013441B683B66BB6FDB007A6813441B682C
:10287000FB657B6FDB007A6813441B68BB653B6FAD
:10288000DB007A6813441B687B65FB6EDB007A68AB
:1028900013441B683B65BB6EDB007A6813441B68FE
:1028A000FB647B6EDB007A6813441B68BB64D7F85B
:1028B000EC30DB0004337A6813441B687B64BB6F25
:1028C000DB0004337A6813441B683B647B6FDB00D6
:1028D00004337A6813441B68FB633B6FDB000433EB
:1028E0007A6813441B68BB63FB6EDB0004337A68B1
:1028F00013441B687B63BB6EDB0004337A681344AC
:102900001B683B637B6EDB0004337A6813441B68EF
:10291000FB62D7F8E030C7F8E830D7F8E820D7F8FE
:10292000E4301344C7F8D430D7F8D420D7F8E430D3
:102930001344C7F8D030D7F8D020D7F8E430134488
:10294000C7F8CC30D7F8CC20D7F8E4301344C7F818
:10295000C830D7F8C820D7F8E4301344C7F8C430DB
:10296000D7F8C420D7F8E4301344C7F8C030D7F8FC
:10297000C020D7F8E4301344C7F8BC30D7F8E830AB
:10298000DB00FA68134493ED007AD7F8C830DB0017
:10299000FA681344D3ED007A77EE277AC7ED2E7AE2
:1029A000D7F8E830DB00FA68134493ED007AD7F8E3
:1029B000C830DB00FA681344D3ED007A77EE677A0B
:1029C000C7ED2D7AD7F8D430DB00FA68134493EDC5
:1029D000007AD7F8C430DB00FA681344D3ED007AEC
:1029E00077EE277AC7ED2C7AD7F8D430DB00FA6877
:1029F000134493ED007AD7F8C430DB00FA6813442F
:102A0000D3ED007A77EE677AC7ED2B7AD7F8D0301E
:102A1000DB00FA68134493ED007AD7F8C030DB008E
:102A2000FA681344D3ED007A77EE277AC7ED2A7A55
:102A3000D7F8D030DB00FA68134493ED007AD7F86A
:102A4000C030DB00FA681344D3ED007A77EE677A82
:102A5000C7ED297AD7F8CC30DB00FA68134493ED40
:102A6000007AD7F8BC30DB00FA681344D3ED007A63
:102A700077EE277AC7ED287AD7F8CC30DB00FA68F2
:102A8000134493ED007AD7F8BC30DB00FA681344A6
:102A9000D3ED007A77EE677AC7ED277A97ED2E7A35
:102AA000D7ED2A7A77EE677AC7ED267A97ED2E7AF8
:102AB000D7ED2A7A77EE277AC7ED2E7A97ED2C7A22
:102AC000D7ED287A77EE677AC7ED2A7A97ED2C7AD8
:102AD000D7ED287A77EE277AC7ED2C7AD7F8E83049
:102AE000DB00FA68134497ED2E7AD7ED2C7A77EE57
:102AF000277AC3ED007A97ED2E7AD7ED2C7A77EE10
:102B0000677AC7ED2C7AD7F8E830DB000433FA682F
:102B1000134493ED007AD7F8C830DB000433FA6829
:102B20001344D3ED007A77EE277AC7ED0A7AD7F807
:102B3000E830DB000433FA68134493ED007AD7F8E9
:102B4000C830DB000433FA681344D3ED007A77EE23
:102B5000677AC7ED257AD7F8D430DB000433FA68FA
:102B6000134493ED007AD7F8C430DB000433FA68DD
:102B70001344D3ED007A77EE277AC7ED097AD7F8B8
:102B8000D430DB000433FA68134493ED007AD7F8AD
:102B9000C430DB000433FA681344D3ED007A77EED7
:102BA000677AC7ED247AD7F8D030DB000433FA68AF
:102BB000134493ED007AD7F8C030DB000433FA6891
:102BC0001344D3ED007A77EE277AC7ED237AD7F84E
:102BD000D030DB000433FA68134493ED007AD7F861
:102BE000C030DB000433FA681344D3ED007A77EE8B
:102BF000677AC7ED227AD7F8CC30DB000433FA6865
:102C0000134493ED007AD7F8BC30DB000433FA6844
:102C10001344D3ED007A77EE277AC7ED087AD7F818
:102C2000CC30DB000433FA68134493ED007AD7F814
:102C3000BC30DB000433FA681344D3ED007A77EE3E
:102C4000677AC7ED217A97ED0A7AD7ED237A77EE86
:102C5000677AC7ED207A97ED0A7AD7ED237A77EE77
:102C6000277AC7ED0A7A97ED097AD7ED087A77EED9
:102C7000677AC7ED237A97ED097AD7ED087A77EE70
:102C8000277AC7ED097A97ED267AD7ED237A77EE82
:102C9000277AC7ED2E7A97ED267AD7ED237A77EE4D
:102CA000677AC7ED267AD7F8E830DB000433FA6894
:102CB000134497ED0A7AD7ED097A77EE277AC3EDB8
:102CC000007A97ED0A7AD7ED097A77EE677AC7ED41
:102CD000097A97ED207AD7ED2A7A77EE677AC7EDF1
:102CE0000A7A97ED207AD7ED2A7A77EE277AC7ED20
:102CF000207A97ED157AD7ED2C7A67EE277AC7ED13
:102D0000077A97ED0E7AD7ED097A67EE277AC7ED45
:102D1000067A97ED157AD7ED097A67EE277AC7ED2F
:102D2000057A97ED0E7AD7ED2C7A67EE277AC7ED04
:102D3000047AD7F8C830DB00FA68134497ED077AB5
:102D4000D7ED067A77EE277AC3ED007AD7F8C83048
:102D5000DB000433FA68134497ED057AD7ED047A63
:102D600077EE677AC3ED007A97ED177AD7ED2E7A72
:102D700067EE277AC7ED077A97ED107AD7ED0A7AD2
:102D800067EE277AC7ED067A97ED177AD7ED0A7ABC
:102D900067EE277AC7ED057A97ED107AD7ED2E7A90
:102DA00067EE277AC7ED047AD7F8D030DB00FA68EF
:102DB000134497ED077AD7ED067A77EE277AC3EDBD
:102DC000007AD7F8D030DB000433FA68134497ED6B
:102DD000057AD7ED047A77EE677AC3ED007A97ED3E
:102DE000137AD7ED267A67EE277AC7ED077A97ED43
:102DF0000C7AD7ED207A67EE277AC7ED067A97ED41
:102E0000137AD7ED207A67EE277AC7ED057A97ED2A
:102E10000C7AD7ED267A67EE277AC7ED047AD7F8D1
:102E2000C030DB00FA68134497ED077AD7ED067AD5
:102E300077EE277AC3ED007AD7F8C030DB00043391
:102E4000FA68134497ED057AD7ED047A77EE677A3E
:102E5000C3ED007A97ED2B7AD7ED277A77EE677A74
:102E600097ED377A67EE277AC7ED2E7A97ED2B7AB2
:102E7000D7ED277A77EE277A97ED377A67EE277ABC
:102E8000C7ED2B7A97ED247AD7ED217A77EE677A22
:102E900097ED377A67EE277AC7ED0A7A97ED247AAD
:102EA000D7ED217A77EE277A97ED377A67EE277A92
:102EB000C7ED247A97ED2D7AD7ED2E7A77EE677AE3
:102EC000C7ED267A97ED2D7AD7ED2E7A77EE277A11
:102ED000C7ED2D7A97ED297AD7ED2B7A77EE677AC1
:102EE000C7ED277A97ED297AD7ED2B7A77EE277AF7
:102EF000C7ED297A97ED257AD7ED0A7A77EE677ACA
:102F0000C7ED207A97ED257AD7ED0A7A77EE277A02
:102F1000C7ED257A97ED227AD7ED247A77EE677A96
:102F2000C7ED217A97ED227AD7ED247A77EE277ACA
:102F3000C7ED227A97ED2D7AD7ED227A77EE277AB0
:102F4000C7ED2E7A97ED2D7AD7ED227A77EE677A54
:102F5000C7ED2D7A97ED267AD7ED217A77EE277A8D
:102F6000C7ED2B7A97ED267AD7ED217A77EE677A3F
:102F7000C7ED267A97ED257AD7ED297A77EE677A2D
:102F8000C7ED0A7A97ED257AD7ED297A77EE277A79
:102F9000C7ED257A97ED207AD7ED277A77EE677A15
:102FA000C7ED247A97ED207AD7ED277A77EE277A46
:102FB000C7ED207A97ED187AD7ED2E7A67EE277A4B
:102FC000C7ED077A97ED117AD7ED0A7A67EE277A7F
:102FD000C7ED067A97ED187AD7ED0A7A67EE277A69
:102FE000C7ED057A97ED117AD7ED2E7A67EE277A3D
:102FF000C7ED047AD7F8D430DB00FA68134497EDB4
:10300000077AD7ED067A77EE277AC3ED007AD7F8FC
:10301000D430DB000433FA68134497ED057AD7ED1A
:10302000047A77EE677AC3ED007A97ED127AD7EDDE
:103030002D7A67EE277AC7ED077A97ED0B7AD7EDF1
:10304000257A67EE277AC7ED067A97ED127AD7EDE3
:10305000257A67EE277AC7ED057A97ED0B7AD7EDDB
:103060002D7A67EE277AC7ED047AD7F8BC30DB00FB
:10307000FA68134497ED077AD7ED067A77EE277A48
:10308000C3ED007AD7F8BC30DB000433FA68134490
:1030900097ED057AD7ED047A77EE677AC3ED007A7B
:1030A00097ED147AD7ED2B7A67EE277AC7ED077A7A
:1030B00097ED0D7AD7ED247A67EE277AC7ED067A79
:1030C00097ED147AD7ED247A67EE277AC7ED057A63
:1030D00097ED0D7AD7ED2B7A67EE277AC7ED047A54
:1030E000D7F8C430DB00FA68134497ED077AD7EDC0
:1030F000067A77EE277AC3ED007AD7F8C430DB0082
:103100000433FA68134497ED057AD7ED047A77EE25
:10311000677AC3ED007A97ED167AD7ED267A67EED7
:10312000277AC7ED077A97ED0F7AD7ED207A67EE09
:10313000277AC7ED067A97ED167AD7ED207A67EEF3
:10314000277AC7ED057A97ED0F7AD7ED267A67EEE5
:10315000277AC7ED047AD7F8CC30DB00FA6813443D
:1031600097ED077AD7ED067A77EE277AC3ED007AE6
:10317000D7F8CC30DB000433FA68134497ED057AB6
:10318000D7ED047A77EE677AC3ED007AD7F8E820B6
:10319000D7F8D8301344C7F8E8307B89D7F8E8204F
:1031A0009A42FFF4BAABD7F8E0300133C7F8E03009
:1031B000D7F8E020D7F8E4309A42FFF42CAB3B89F3
:1031C000DB003B81D7F8E430072B3FF613A800E083
:1031D00000BF00BFF437BD465DF8047B704700BFF9
:1031E00080B495B000AFF860B9607A60FB685B6945
:1031F000BB64BB687B64BB683B64FB681B88013BAA
:10320000FB643B6C1B68FB633B6C04331B68BB6358
:103210007B6C1B687B637B6C04331B683B63BB6C00
:103220001A1DBA641B68FB62BB6C1A1DBA641B686A
:10323000BB6297ED0F7AD7ED0D7A77EE277AC7ED5F
:10324000097A97ED0E7AD7ED0C7A77EE277AC7EDEB
:10325000087A97ED097AD7ED087A77EE277A7B68B6
:103260001A1D7A60B6EE007A67EE877AC3ED007AAF
:1032700097ED097AD7ED087A77EE677A7B681A1DA1
:103280007A60B6EE007A67EE877AC3ED007AFB6C5F
:10329000DB00BA6813443B647B6C08337B643B6C93
:1032A00004331B68BB633B6C1B68FB637B6C1B6854
:1032B0007B637B6C04331B683B63BB6C1A1DBA6475
:1032C0001B68FB62BB6C1A1DBA641B68BB6297ED7E
:1032D0000F7AD7ED0D7A77EE677AC7ED097A97ED19
:1032E0000E7AD7ED0C7A77EE277AC7ED087A97ED4C
:1032F0000B7AD7ED097A67EE277AC7ED077A97ED53
:103300000A7AD7ED097A67EE277AC7ED067A97ED44
:103310000B7AD7ED087A67EE277AC7ED057A97ED35
:103320000A7AD7ED087A67EE277AC7ED047A97ED27
:103330000D7AD7ED0F7A37EE277AD7ED077A37EE89
:10334000277AD7ED047A77EE277A7B681A1D7A60A0
:10335000B6EE007A67EE877AC3ED007A97ED0C7AC5
:10336000D7ED0E7A37EE677AD7ED067A37EE277A01
:10337000D7ED057A77EE677A7B681A1D7A60B6EE2C
:10338000007A67EE877AC3ED007A7B6C08337B6442
:103390003B6C083B3B64FB6C013BFB64FB6C002B10
:1033A0003FF77DAF00BF00BF5437BD465DF8047BDB
:1033B000704780B495B000AFF860B9607A60FB6880
:1033C0005B69BB64BB687B64BB683B64FB681B8850
:1033D000013BFB647B6C1B68FB637B6C04331B68E9
:1033E000BB63BB6C0833BB6497ED0F7AD7ED0E7AE5
:1033F00077EE277A7B681A1D7A60B6EE007A67EE60
:10340000877AC3ED007A97ED0F7AD7ED0E7A77EED3
:10341000677A7B681A1D7A60B6EE007A67EE877A63
:10342000C3ED007AFB6CDB00BA6813443B647B6C31
:1034300008337B647EE03B6C04331B687B633B6C2E
:103440001B683B637B6C1B68FB637B6C04331B68F2
:10345000BB63BB6C1A1DBA641B68FB62BB6C1A1D94
:10346000BA641B68BB6297ED0F7AD7ED0C7A77EEE2
:10347000677AC7ED097A97ED0E7AD7ED0D7A77EE78
:10348000277AC7ED087A97ED0B7AD7ED097A67EEC0
:10349000277AC7ED077A97ED0A7AD7ED087A67EEB3
:1034A000277AC7ED067A97ED0A7AD7ED097A67EEA3
:1034B000277AC7ED057A97ED0B7AD7ED087A67EE94
:1034C000277AC7ED047A97ED0F7AD7ED0C7A37EEAD
:1034D000277AD7ED077A37EE677AD7ED067A77EE57
:1034E000677A7B681A1D7A60B6EE007A67EE877A93
:1034F000C3ED007A97ED0E7AD7ED0D7A37EE677A45
:10350000D7ED057A37EE277AD7ED047A77EE677A2A
:103510007B681A1D7A60B6EE007A67EE877AC3ED93
:10352000007A7B6C08337B643B6C083B3B64FB6C30
:10353000013BFB64FB6C002B3FF77DAF00BF00BF7E
:103540005437BD465DF8047B704780B586B000AF48
:10355000F860B9607A60FB70FB687B61FB78002BD8
:103560000BD07A68B968F868FFF723FFFA7801236F
:1035700079687869FEF75BFC0AE0FA780123B9689C
:103580007869FEF754FC7A68B968F868FFF728FE96
:1035900000BF1837BD4680BD80B584B000AF7860ED
:1035A0007B68002B02D14FF0FF3313E07B68184695
:1035B000FEF7EEFD0346FB7397F90F30002B02D0A8
:1035C00097F90F3006E07B6820221A827B68034A55
:1035D0005A61002318461037BD4680BDC0810108DE
:1035E00080B584B000AF78607B68002B02D14FF0CB
:1035F000FF3313E07B681846FEF7A8FD0346FB7314
:1036000097F90F30002B02D097F90F3006E07B6856
:1036100040221A827B68034A5A61002318461037F9
:10362000BD4680BD4082010880B584B000AF78609F
:103630007B68002B02D14FF0FF3313E07B68184604
:10364000FEF762FD0346FB7397F90F30002B02D0A3
:1036500097F90F3006E07B6880221A827B68034A64
:103660005A61002318461037BD4680BD40830108CB
:1036700080B584B000AF78607B68002B02D14FF03A
:10368000FF3314E07B681846FEF71CFD0346FB730E
:1036900097F90F30002B02D097F90F3007E07B68C5
:1036A0004FF480721A827B68034A5A6100231846DD
:1036B0001037BD4680BD00BF4085010880B584B08D
:1036C00000AF78607B68002B02D14FF0FF3314E02D
:1036D0007B681846FEF7D2FC0346FB7397F90F3060
:1036E000002B02D097F90F3007E07B684FF400728F
:1036F0001A827B68034A5A61002318461037BD4678
:1037000080BD00BF4089010880B584B000AF7860FB
:103710007B68002B02D14FF0FF3314E07B68184622
:10372000FEF788FC0346FB7397F90F30002B02D09D
:1037300097F90F3007E07B684FF480621A827B684C
:10374000034A5A61002318461037BD4680BD00BFAA
:103750004091010880B584B000AF78607B68002B91
:1037600002D14FF0FF3314E07B681846FEF73EFCB1
:103770000346FB7397F90F30002B02D097F90F30F7
:1037800007E07B684FF400621A827B68034A5A6143
:10379000002318461037BD4680BD00BF40A1010878
:1037A00080B584B000AF78607B68002B02D14FF009
:1037B000FF3314E07B681846FEF7F4FB0346FB7307
:1037C00097F90F30002B02D097F90F3007E07B6894
:1037D0004FF480521A827B68034A5A6100231846CC
:1037E0001037BD4680BD00BF40C1010880B584B020
:1037F00000AF78600B467B807B88B3F5805F23D079
:10380000B3F5805F50DCB3F5006F23D0B3F5006FE4
:103810004ADCB3F5806F23D0B3F5806F44DCB3F599
:10382000007F23D0B3F5007F3EDCB3F5807F23D04B
:10383000B3F5807F38DC802B24D0802B34DC202B28
:103840002CD0402B24D02FE07868FFF7A9FF034647
:10385000FB732CE07868FFF77DFF0346FB7326E0DF
:103860007868FFF751FF0346FB7320E07868FFF7A5
:1038700025FF0346FB731AE07868FFF7F9FE03465D
:10388000FB7314E07868FFF7CFFE0346FB730EE08E
:103890007868FFF7A5FE0346FB7308E07868FFF73A
:1038A0007BFE0346FB7302E04FF0FF3301E097F924
:1038B0000F3018461037BD4680BD000080B400AF01
:1038C000094BD3F88830084A43F47003C2F88830B3
:1038D000BFF34F8F00BFBFF36F8F00BF00BFBD4668
:1038E0005DF8047B704700BF00ED00E080B582B05A
:1038F00000AF786001F082FD012002F0E9FC00BF1A
:10390000F8E780B582B000AF78604FF0FF32012158
:10391000002003F089F901F073FC00BFF5E780B5E2
:1039200082B000AF78604FF0FF320121002003F039
:103930007BF901F095FC00BFF5E780B582B000AFE0
:103940007860642002F0C4FC01F0B8FC00BFF8E726
:1039500080B582B000AF786001F0CEFA322002F07C
:10396000B7FC00BFF8E700002DE9B04FA8B000AFEA
:10397000F8664FF000024FF00003C7E9242300234C
:103980007B677D4B186807F184034FF0FF321946BF
:1039900002F07EF90346012B43D1D7F884307B67D0
:1039A0007B6F0022BB62FA62D7E90A23C7E92423AE
:1039B000D7E9240100F0F2FE0A2002F089FCD7F8D2
:1039C00088307B677B6F0022BB65FA65D7E91612EA
:1039D000134601337B620B463B62D7E90823C7E9F4
:1039E0002423D7E9240100F0D9FE0A2002F070FC5C
:1039F000D7F88C307B677B6F00223B657A65D7E90F
:103A0000141213460233FB610B46BB61D7E9062350
:103A1000C7E92423D7E9240100F0C0FE0A2002F000
:103A200057FC002387F89F3082E0544B186807F159
:103A300078034FF0FF32194602F02AF90346012BB2
:103A400071D1BB6F7B6797F89F305A1C13465B00A0
:103A50001344DA17BB64FA644FF000024FF000031E
:103A6000B96C0B000022796F002039667866396ED8
:103A700051183961796E4B417B61D7E90423C7E95D
:103A80002423D7E9240100F089FE0A2002F020FC5B
:103A9000FB6F7B6797F89F2013465B00134404334A
:103AA000DA173B647A644FF000024FF00003396C80
:103AB0000B000022796F00208A46834612EB0A0130
:103AC000B96043EB0B03FB60D7E90223C7E924236A
:103AD000D7E9240100F062FE0A2002F0F9FBD7F8D2
:103AE00080307B6797F89F2013465B0013440533B3
:103AF000DA17BB63FA634FF000024FF00003B96BB3
:103B00000B000022796F00200C46054612EB0408DA
:103B100043EB0509C7E92489D7E9240100F03EFEFB
:103B20000A2002F0D5FB97F89F30013387F89F30C9
:103B300097F89F30022B7FF678AF01F0CFF9F0EEC7
:103B4000407AC7ED1C7A3B6F7B677B6F00223B633B
:103B50007A63D7E90C1213460C337B600B463B604B
:103B6000D7E90023C7E92423D7E9240100F016FE92
:103B70000A2002F0ADFB04E7240200202802002006
:103B800080B485B000AF786039604FF0500383F3A4
:103B90001188BFF36F8FBFF34F8FFB6000BF00BF73
:103BA000FDE7000080B58CB002AFFFF787FE00F0A4
:103BB000C3FC01F0C7F901F0ADF801F0ADFA00F077
:103BC000C3FF03461A466D4B1A7000220C210A20CF
:103BD00001F0EEFE03466A4A136000220C210A201F
:103BE00001F0E6FE0346674A1360654B1B68002B35
:103BF0000BD14FF0500383F31188BFF36F8FBFF3E6
:103C00004F8F3B6200BF00BFFDE75E4B1B68002B80
:103C10000BD14FF0500383F31188BFF36F8FBFF3C5
:103C20004F8FFB6100BF00BFFDE7574B019301239E
:103C3000009300234FF480625449554802F002FA81
:103C400078627B6A012B0BD04FF0500383F311880D
:103C5000BFF36F8FBFF34F8FBB6100BF00BFFDE7A6
:103C60004C4B01930223009300234FF480624A4996
:103C70004A4802F0E7F978627B6A012B0BD04FF0DB
:103C8000500383F31188BFF36F8FBFF34F8F7B61B6
:103C900000BF00BFFDE7424B0193022300930023C6
:103CA0004FF480623F49404802F0CCF978627B6A69
:103CB000012B0BD04FF0500383F31188BFF36F8FAC
:103CC000BFF34F8F3B6100BF00BFFDE7374B019350
:103CD0000123009300234FF480623549354802F0F8
:103CE000B1F978627B6A012B0BD04FF0500383F35C
:103CF0001188BFF36F8FBFF34F8FFB6000BF00BF12
:103D0000FDE72D4B01930323009300234FF48072B2
:103D10002A492B4802F096F978627B6A012B0BD076
:103D20004FF0500383F31188BFF36F8FBFF34F8FB2
:103D3000BB6000BF00BFFDE7224B0193022300934D
:103D400000234FF480622049204802F07BF978621A
:103D50007B6A012B0BD04FF0500383F31188BFF324
:103D60006F8FBFF34F8F7B6000BF00BFFDE702F096
:103D7000E5FA002318462837BD4680BD0902002019
:103D800024020020280200200C020020A8CB0008FA
:103D9000ED38000810020020B0CB000803390008FD
:103DA00014020020B4CB00081F39000818020020BC
:103DB000B8CB00083B3900081C020020C0CB00082B
:103DC0005139000820020020C8CB000869390008DA
:103DD00080B400AF00BFFDE780B400AF00BFFDE7D7
:103DE00080B400AF00BFFDE780B400AF00BFFDE7C7
:103DF00080B400AF00BFFDE780B400AF00BFBD4698
:103E00005DF8047B7047000080B500AF024800F009
:103E1000DCF800BF80BD00BF2C02002080B483B05E
:103E200000AF0346FB710F4B1B680E4A43F08073D3
:103E300013600D4B1B680C4A43F00103136000BF75
:103E40004FF060431B6803F00103002BF8D04FF0E4
:103E50006042FB79136000BF0C37BD465DF8047B00
:103E6000704700BFFCED00E0000E00E080B400AF42
:103E700001231846BD465DF8047B704780B582B0CB
:103E800000AF7860396004F07FFC034616221A60A8
:103E90004FF0FF3318460837BD4680BD80B582B06D
:103EA00000AF78604FF0FF317868FFF7E7FF00BFA1
:103EB000FDE780B586B000AFF860B9607A60002396
:103EC0007B6109E0BB685A1CBA601B781846FFF793
:103ED000A5FF7B6901337B617A697B689A42F1DBDC
:103EE0007B6818461837BD4680BD80B483B000AFEC
:103EF00078604FF0FF3318460C37BD465DF8047B01
:103F0000704780B483B000AF786039603B684FF48D
:103F100000525A60002318460C37BD465DF8047BFA
:103F2000704780B483B000AF7860012318460C3727
:103F3000BD465DF8047B704780B485B000AFF86083
:103F4000B9607A60002318461437BD465DF8047BDB
:103F50007047000080B400AF064BD3F88830054AA4
:103F600043F47003C2F8883000BFBD465DF8047B9F
:103F7000704700BF00ED00E0DFF834D0FFF7EAFF44
:103F80000C480D490D4A002302E0D458C4500433B4
:103F9000C4188C42F9D30A4A0A4C002301E013608A
:103FA0000432A242FBD304F0F5FBFFF7FBFD7047A0
:103FB0000000022000000020D4010020CC090208EB
:103FC000D80100205C540120FEE780B584B000AF2A
:103FD00078607B681B68DB68FB607B681B681B691B
:103FE000BB60BB6803F00203002B20D0FB6803F02A
:103FF0000203002B1BD07B681B686FF002021A6162
:104000007B6801221A777B681B689B6903F00303B6
:10401000002B03D0786800F0DCF805E0786800F049
:10402000CEF8786800F0DFF87B6800221A77BB686A
:1040300003F00403002B20D0FB6803F00403002BE3
:104040001BD07B681B686FF004021A617B68022238
:104050001A777B681B689B6903F44073002B03D0BD
:10406000786800F0B6F805E0786800F0A8F878689D
:1040700000F0B9F87B6800221A77BB6803F00803E8
:10408000002B20D0FB6803F00803002B1BD07B68BB
:104090001B686FF008021A617B6804221A777B683C
:1040A0001B68DB6903F00303002B03D0786800F082
:1040B00090F805E0786800F082F8786800F093F8EE
:1040C0007B6800221A77BB6803F01003002B20D016
:1040D000FB6803F01003002B1BD07B681B686FF09C
:1040E00010021A617B6808221A777B681B68DB69FB
:1040F00003F44073002B03D0786800F06AF805E001
:10410000786800F05CF8786800F06DF87B68002251
:104110001A77BB6803F00103002B0CD0FB6803F097
:104120000103002B07D07B681B686FF001021A6146
:10413000786800F03AF8BB6803F08003002B0CD0DD
:10414000FB6803F08003002B07D07B681B686FF0CF
:1041500080021A61786800F064F8BB6803F04003DD
:10416000002B0CD0FB6803F04003002B07D07B68CA
:104170001B686FF040021A61786800F03EF8BB6877
:1041800003F02003002B0CD0FB6803F02003002B6E
:1041900007D07B681B686FF020021A61786800F016
:1041A00036F800BF1037BD4680BD80B483B000AF85
:1041B000786000BF0C37BD465DF8047B704780B463
:1041C00083B000AF786000BF0C37BD465DF8047B5C
:1041D000704780B483B000AF786000BF0C37BD4635
:1041E0005DF8047B704780B483B000AF786000BF97
:1041F0000C37BD465DF8047B704780B483B000AFD8
:10420000786000BF0C37BD465DF8047B704780B412
:1042100083B000AF786000BF0C37BD465DF8047B0B
:10422000704780B483B000AF786000BF0C37BD46E4
:104230005DF8047B7047000080B400AF2B4B1B6B14
:104240002A4A43F001031363284B5B6C274A43F46B
:1042500080535364264B1B68254A23F47C43136028
:10426000234B1B68224A43F428431360204B1B6AEC
:104270001F4AC3F3130313621D4B1B6A1C4A43F00E
:10428000AA4343F4A00313621A4B00221A60194B8D
:104290001B68184A43F004031360164B1B68154A49
:1042A00043F400731360134B1B68124A43F480738A
:1042B0001360104B1B680F4A43F0020313600D4B51
:1042C0001B680C4A43F0010313600A4B1B68094A40
:1042D00043F010031360074B1B68064A43F040038A
:1042E000136000BFBD465DF8047B70470038024094
:1042F000000002400030014080B483B000AF0346AC
:10430000FB7100BF0C4B9B6803F00203002BF9D03C
:104310000A4AFB79137000BF074B9B6803F0010347
:10432000002BF9D0054B1B78DBB218460C37BD4685
:104330005DF8047B704700BF003001400C30014045
:1043400080B582B000AF184B1B6B174A43F00203D5
:104350001363164B1B68154A23F440531360134B29
:104360001B68124A43F480531360FFF765FF0F4B3D
:1043700040229A61002000F039F80346FB71FB7976
:10438000E52B0CD10C212C2000F012F80921312052
:1043900000F00EF808212D2000F00AF800E000BF20
:1043A0000837BD4680BD00BF00380240000402400F
:1043B00080B582B000AF03460A46FB711346BB715D
:1043C000094B4FF480029A61FB791846FFF794FF7E
:1043D000BB791846FFF790FF034B40229A6100BF5C
:1043E0000837BD4680BD00BF0004024080B584B0E0
:1043F00000AF0346FB710C4B4FF480029A61FB79CE
:1044000063F07F03DBB21846FFF776FF0020FFF76B
:1044100073FF0346FB73044B40229A61FB7B1846F3
:104420001037BD4680BD00BF0004024080B584B097
:1044300000AF7860244B4FF480029A61F220FFF7BE
:104440005BFF0020FFF758FF0346FB730020FFF7D8
:1044500053FF0346BB730020FFF74EFF03467B73F9
:104460000020FFF749FF03463B730020FFF744FF9E
:104470000346FB720020FFF73FFF0346BB72124B5F
:1044800040229A61BB7B1BB21B021AB2FB7B1BB2A0
:1044900013431AB27B681A803B7B1BB21B021AB211
:1044A0007B7B1BB213431AB27B685A80BB7A1BB268
:1044B0001B021AB2FB7A1BB213431AB27B689A80B2
:1044C00000BF1037BD4680BD0004024080B483B0F9
:1044D00000AF0346FB80B7F9063007EE903AF8EEDE
:1044E000E77A9FED057A67EE877AB0EE670A0C37B8
:1044F000BD465DF8047B704724977F3B80B483B052
:1045000000AF0346FB7197F90730002B0BDBFB79FB
:1045100003F01F02074997F907305B09012000FAF1
:1045200002F241F8232000BF0C37BD465DF8047B42
:10453000704700BF00E100E080B500AF584B1B6C36
:10454000574A43F000731364554B1B6B544A43F0B6
:1045500001031363534B1B68524A43F028631360F3
:10456000504B5B6A4F4A23F47F2353624D4B5B6A87
:104570004C4A43F4192353624B4B1B684A4A43F09D
:104580000103136000BF484B5B6803F00103002B7D
:10459000F9D0454B1B68444A23F00203136000BF67
:1045A000414B5B6803F00203002BF9D13E4B5B6982
:1045B0003D4A43F0020353613B4B5B693A4A43F087
:1045C00010035361384B5B69374A43F4004353612E
:1045D000354B364ADA61344BD3F80032324A43F075
:1045E0000103C2F80032304BD3F800322E4A23F4D4
:1045F0007F43C2F800322C4BD3F800322A4A43F4EE
:10460000901343F41063C2F800321420FFF776FFD2
:104610001520FFF773FF244BD3F81C32224A23F0F6
:104620000103C2F81C32204BD3F804321E4A43F077
:104630000103C2F804321C4BD3F80C321A4A23F09F
:104640000103C2F80C32184BD3F81432164A23F087
:104650000103C2F81432144B6022C3F84022124BFB
:10466000D3F81C32104A43F00103C2F81C320E4B3F
:10467000D3F800320C4A23F00103C2F800320A4B8F
:104680001B68094A23F001031360074B1B68064AA5
:1046900023F00203136062B600BF00BF80BD00BFFD
:1046A00000380240000002400064004001002B017D
:1046B0002DE9F00386B000AF7860F9704FF000008C
:1046C0004FF00001C7E904013149096879810021EF
:1046D000F96022E0F968786801440978C9B20020DD
:1046E0000C460546F968C900A1F12006C1F1200079
:1046F00005FA01F304FA06F6334324FA00F0034303
:1047000004FA01F2D7E9040140EA020841EA030988
:10471000C7E90489F9680131F960F978F8688842D5
:10472000D8DB00BF1B4B9B6803F08063002BF9D0E4
:10473000194B4FF480021A60174B1B68164A23F07E
:1047400004031360144B1B68134A23F00203136025
:104750007B891A04FB781A430F4B5A600E4A3B6957
:104760009360D7E904014FF000024FF000030A0004
:10477000002309491346CB60074B1B68064A43F0E8
:104780000103136000BF1837BD46BDE8F003704752
:10479000A00C00200064004080650040F0B585B0AA
:1047A00000AFC7E900010021F9731AE0F97BCC00E2
:1047B000D7E90001C4F12006A4F1200520FA04F293
:1047C00001FA06F6324321FA05F52A4321FA04F3E9
:1047D000F97BD0B21031394401F8080CF97B013172
:1047E000F973F97B0429E1D907F10803052118467B
:1047F000FFF75EFF00BF1437BD46F0BD2DE9F003A3
:1048000000AF214B01221A70204BD3F8B0315B0D61
:104810009BB2C3F30A039AB21D4B1A801B4BD3F809
:10482000B431DBB203F00F03DAB21A4B1A70174B34
:10483000D3F8B4311B0C9AB2174B1A80134BD3F830
:10484000BC310022984691464FF000024FF0000321
:10485000434600220D4ED6F8B8614FF0000C3046AA
:10486000614642EA000443EA01050C4BC3E90045F6
:10487000064BDB68054A43F02003D36000BFBD460A
:10488000BDE8F003704700BF08020020006400404C
:10489000F4010020F6010020F801002000020020B1
:1048A00080B485B000AF78604FF00003FB60002358
:1048B000BB600EE0BB689B007A681344D3ED007ABE
:1048C00097ED037A77EE277AC7ED037ABB68013359
:1048D000BB60BB68FF2BEDD9D7ED037A9FED067A5D
:1048E000C7EE876AF0EE667AB0EE670A1437BD4607
:1048F0005DF8047B704700BF0000804380B582B044
:1049000000AF78607B6807EE903AF8EE677A9FED2B
:104910000D7A67EE877ADFED0C6A87EEA67AB0EE45
:10492000470A07F0E5FAF0EE407AB7EE007A77EE44
:10493000677AB6EE007A67EE877AB0EE670A0837D4
:10494000BD4680BDDB0FC94000007F4380B584B009
:1049500000AF2D4BD3ED007AB0EEE77ADFED2B6A96
:10496000C7EE267A2A4BC3ED007A0123FB6037E0BD
:10497000FB685B00244A9B0013441B68BB60FB6818
:104980005B000133204A9B0013441B687B60D7ED1A
:10499000027A27EEA77AD7ED017A67EEA77A77EE4B
:1049A000277AB0EE670A07F081FAF0EE407A184AEB
:1049B000FB689B001344C3ED007A154AFB689B001B
:1049C0001344D3ED007A9FED137A67EE877A104A8D
:1049D000FB689B001344C3ED007AFB680133FB6066
:1049E000FB687F2BC4D9084BD3ED017AB0EEE77A90
:1049F000DFED066AC7EE267A054BC3ED807A00BF6D
:104A00001037BD4680BD00BF8C06002000008043EB
:104A10008C0A00200000003C80B483B000AF7860B6
:104A20007B6807EE903AF8EE677A9FED087A67EEBA
:104A3000877A9FED077AC7EE876AF0EE667AB0EE66
:104A4000670A0C37BD465DF8047B70470000484498
:104A50000000804380B588B000AF786039607B6823
:104A6000002B64D07868FFF71BFF87ED030A002353
:104A7000FB611FE0FB699B007A68134493ED007AA9
:104A8000D7ED037A77EE677AC7ED027AF869FFF718
:104A900035FFB0EE407AD7ED027A67EE877AC7ED40
:104AA000027A254AFB699B001344BA681A60FB69C5
:104AB0000133FB61FB69FF2BDCD900231F4A1E4930
:104AC0001F48FEF742FDFFF741FF4FF00003BB61B7
:104AD00001237B6101233B6117E01A4A3B699B007C
:104AE0001344D3ED007A97ED067AB4EEE77AF1EE4F
:104AF00010FA07D5134A3B699B0013441B68BB613E
:104B00003B697B613B6901333B613B697F2BE4D9A6
:104B10003B687A699A607869FFF77EFFF0EE407A29
:104B20003B68C3ED007A3B68BA695A6000E000BF99
:104B30002037BD4680BD00BF8C0200208C060020BF
:104B4000740200208C0A002080B500AF4FF4807101
:104B50000248FEF74BFE0346184680BD7402002053
:104B600080B5ADF5416D00AF07F54163A3F60C4389
:104B7000186007F54163A3F54163196007F54163C8
:104B8000A3F60C431B68002B77D00023C7F80C3C1E
:104B900049E0D7F80C2C13465B0013449B001A46DF
:104BA00007F54163A3F60C431B6813441A6807F525
:104BB0004163A3F20441D7F80C3C9B000B441A60FC
:104BC000D7F80C2C13465B0013449B001A4607F5DC
:104BD0004163A3F60C431B6813445A6807F541630D
:104BE000A3F60401D7F80C3C9B000B441A60D7F8DD
:104BF0000C2C13465B0013449B001A4607F54163D7
:104C0000A3F60C431B6813449A6807F54163A3F6A7
:104C10000441D7F80C3C9B000B441A60D7F80C3CBD
:104C20000133C7F80C3CD7F80C3CFF2BB1D907F582
:104C30004163A3F541631A6807F60C031146184651
:104C4000FFF708FF07F54163A3F541631B6803F114
:104C50000C0207F20C4311461846FFF7FBFE07F55E
:104C60004163A3F541631B6803F1180207F10C03CC
:104C700011461846FFF7EEFE00E000BF07F541675A
:104C8000BD4680BD80B483B000AF0346FB7197F989
:104C90000730002B0BDBFB7903F01F02074997F964
:104CA00007305B09012000FA02F241F8232000BF1F
:104CB0000C37BD465DF8047B704700BF00E100E0A3
:104CC00080B483B000AF03463960FB7197F90730B9
:104CD000002B0ADB3B68DAB20C4997F90730120166
:104CE000D2B20B4483F800230AE03B68DAB20849E9
:104CF000FB7903F00F03043B1201D2B20B441A7686
:104D000000BF0C37BD465DF8047B704700E100E052
:104D100000ED00E080B500AF164B1B6B154A43F069
:104D200002031363144B1B68134A23F4407313608C
:104D3000114B1B68104A43F4007313600E4B1B6A3F
:104D40000D4A23F4702313620B4B1B6A0A4A43F487
:104D500000331362084BDB68074A23F44073D360C7
:104D6000054BDB68044A43F48073D36000F006F817
:104D700000BF80BD003802400004024080B500AF93
:104D8000294B1B6C284A43F002031364274B002273
:104D90001A60264B42F2CF029A62244B4FF6FF7202
:104DA000DA62224B00225A62204B9B691F4A23F091
:104DB000030393611D4B9B691C4A43F001039361FC
:104DC0001A4B9B69194A23F0F0039361174B9B69B7
:104DD000164A43F030039361144B9B69134A23F046
:104DE0000C039361114B1B6A104A23F00A031362F0
:104DF0000E4B1B6A0D4A43F0010313620B4BDB6839
:104E00000A4A43F00203D36005211D20FFF758FF33
:104E10001D20FFF737FF054B1B68044A43F00103D1
:104E2000136000BF80BD00BF003802400004004096
:104E300080B483B000AF224B1B6903F00203002B48
:104E400038D01F4B5B6B7B601E4B1B687A689A42A5
:104E500006D31C4B1B687A68D31A1B4A136007E001
:104E6000184B1B687A68D31A03F58033164A13600F
:104E7000144A7B681360144B1B68002B0FD0124B35
:104E80001B6807EE903AB8EE677ADFED106AC6EE5F
:104E9000877A0F4BC3ED007A0E4B01221A700E4B2E
:104EA0001B6801330C4A1360054B1B69044A23F04D
:104EB0000203136100BF0C37BD465DF8047B7047E9
:104EC00000040040900C0020940C0020007C12494B
:104ED00004000020980C00209C0C002080B400AF3F
:104EE000044B1B6807EE903AB0EE670ABD465DF8CA
:104EF000047B70470400002080B400AF044B4AF6E6
:104F0000AA221A6000BFBD465DF8047B704700BF4F
:104F10000030004080B487B000AFF860B9607A60BC
:104F20007B685A08BB681A447B68B2FBF3F3FB82C8
:104F3000FA8AFB689A6000BF1C37BD465DF8047BA7
:104F40007047000080B500AF324B1B6B314A43F015
:104F500001031363304B1B682F4A23F010031360C7
:104F60002D4B1B682C4A43F0200313602A4B1B6A0D
:104F7000294A43F480731362274B1B6A264A43F481
:104F800000731362244B1B6A234A43F48063136249
:104F9000214B1B6A204A23F4006313621E4B1B68DB
:104FA0001D4A23F0400313601B4B1B681A4A43F051
:104FB00080031360184B1B6A174A43F48053136233
:104FC000154B1B6A144A43F400531362124B1B6ABD
:104FD000114A43F4804313620F4B1B6A0E4A23F4B9
:104FE000004313620B4B1B6C0A4A43F400331364F7
:104FF0004FF4E13209490A48FFF78CFF084B0C22B5
:10500000DA60074BDB68064A43F40053D36000BF05
:1050100080BD00BF00380240000002400024F400C0
:105020000044004080B400AF00BF074B1B6803F092
:105030002003002BF9D0044B5B68DBB21846BD4659
:105040005DF8047B704700BF0044004080B483B02B
:1050500000AF786000BF084B1B6803F08003002B93
:10506000F9D07B68044ADBB2536000BF0C37BD4601
:105070005DF8047B704700BF0044004080B586B0F7
:1050800000AFF860B9607A6000237B6121E0FFF730
:10509000C9FF0346FB74FB7C0D2B0ED10D20FFF7DF
:1050A000D5FF0A20FFF7D2FF7B695A1C7A611A46A6
:1050B000BB6813440A221A700FE0FB7C1846FFF706
:1050C000C5FF7B695A1C7A611A46BB681344FA7C97
:1050D0001A707A697B689A42D9DB7B69184618375F
:1050E000BD4680BD80B584B000AF786039600023D4
:1050F000FB6009E0FB687A6813441B781846FFF7E9
:10510000A5FFFB680133FB60FA683B689A42F1DB5C
:1051100000BF1037BD4680BD80B582B000AF002310
:10512000FB8042E0FA88304913465B0013449B0041
:105130000B444FF000021A60FA882B4913465B00BB
:1051400013449B000B4404334FF000021A60FA88AA
:10515000254913465B0013449B000B4408334FF072
:1051600000021A60FA88214913465B0013449B0031
:105170000B444FF000021A60FA881C4913465B008A
:1051800013449B000B4404334FF000021A60FA886A
:10519000164913465B0013449B000B4408334FF041
:1051A00000021A60FB880133FB80FB88FF2BB9D912
:1051B0000F4B00221A700F4B00221A800E4B002258
:1051C0001A700E4B4FF000021A600C4B4FF00002A9
:1051D0005A600A4B4FF000029A60FFF7B1F800BF27
:1051E0000837BD4680BD00BFA40D0020A4190020D3
:1051F000A4250020A6250020A8250020AC250020FD
:1052000080B584B000AF00F0E3F9F860F86800F012
:1052100021FA87ED020AF86800F056FA87ED010AD4
:10522000D7ED020A97ED010A00F07EFA87ED000A39
:10523000094ABB681360084A7B685360064A3B68AA
:105240009360064B186800230022034900F036FCE7
:1052500000BF1037BD4680BDAC25002024020020D1
:1052600080B500AF00F0B4F903460F4A13600E4B4F
:105270001B680E491846FFF773FC0D4B1868002396
:1052800000220A4900F01AFC094B1868002300228A
:10529000084900F013FC064B186800230022064959
:1052A00000F00CFC00BF80BDB8250020BC2500200C
:1052B00028020020C8250020D42500202DE9B04375
:1052C00084B004AF464B1B681846FBF75DF9804677
:1052D0008946434B5B681846FBF756F904460D4672
:1052E0003F4B9B681846FBF74FF902460B46CDE94A
:1052F0000223CDE9004542464B463A493A4803F07D
:105300008BF93948FAF7D4FF034619463648FFF7B8
:10531000E9FE364B1B681846FBF736F904460D4686
:10532000324B5B681846FBF72FF902460B462F49B4
:1053300089680291CDE9002322462B462C492A4850
:1053400003F06AF92848FAF7B3FF034619462648DE
:10535000FFF7C8FE254BDB681846FBF715F9044636
:105360000D46224B1B691846FBF70EF902460B4609
:105370001E4949690291CDE9002322462B461D4969
:10538000194803F049F91848FAF792FF03461946FD
:105390001548FFF7A7FE154B9B691846FBF7F4F875
:1053A00004460D46114BDB691846FBF7EDF8024643
:1053B0000B460E49096A0291CDE9002322462B468D
:1053C0000D49094803F028F90748FAF771FF034629
:1053D00019460548FFF786FE00BFBD46BDE8B0830D
:1053E000AC250020CCCB0008A40C0020BC2500205C
:1053F00008CC000850CC000880CC000880B586B0EE
:1054000000AF3B1D1846FFF711F8B7F904301846F6
:10541000FFF75CF887ED050AB7F906301846FFF785
:1054200055F887ED040AB7F908301846FFF74EF82B
:1054300087ED030A97ED031AD7ED040A97ED050AE5
:1054400000F004F800BF1837BD4680BD2DE9B04319
:1054500088B004AF87ED030AC7ED020A87ED011A91
:10546000524B1B78DBB2002B26D1514B1B889BB2D1
:105470001946504A0B465B000B449B001344FA68E4
:105480001A604B4B1B889BB219464A4A0B465B007D
:105490000B449B0013440433BA681A60444B1B88C6
:1054A0009BB21946434A0B465B000B449B001344D6
:1054B00008337A681A6025E03D4B1B889BB2194679
:1054C0003D4A0B465B000B449B001344FA681A608C
:1054D000374B1B889BB21946374A0B465B000B447F
:1054E0009B0013440433BA681A60314B1B889BB28B
:1054F0001946314A0B465B000B449B0013440833AA
:105500007A681A602A4B1B889BB201339AB2284BE7
:105510001A80274B1B889BB2FF2B42D9234B1B7849
:10552000DAB2264B1A70214B1B78DBB283F00103F1
:10553000DAB21E4B1A701E4B00221A80F868FBF775
:1055400023F880468946B868FBF71EF804460D46E6
:105550007868FBF719F802460B46CDE90223CDE93E
:10556000004542464B461649164803F055F8154883
:10557000FAF79EFE034619461248FFF7B3FD124B99
:1055800018680023009302230022002101F0B4FBDD
:105590000E4B18680023009302230022002101F023
:1055A000ABFB00BF1037BD46BDE8B083A42500208B
:1055B000A6250020A40D0020A4190020A825002065
:1055C000B0CC0008A40C002010020020140200201F
:1055D00080B400AF064B1B78DBB2002B01D1054B2A
:1055E00000E0054B1846BD465DF8047B704700BFE0
:1055F000A8250020A40D0020A419002080B582B0A9
:1056000000AF78607B6893ED007A7B68D3ED007A19
:1056100027EE277A7B68D3ED016A7B68D3ED017AA8
:1056200066EEA77A37EE277A7B68D3ED026A7B684D
:10563000D3ED027A66EEA77A77EE277AB0EE670AA4
:1056400006F034FCF0EE407AB0EE670A0837BD464B
:1056500080BD000080B586B000AF78604FF00003D9
:105660007B6100237B8219E07A8A13465B00134436
:105670009B001A467B6813441846FFF7BFFF87ED6F
:10568000030AD7ED037A67EEA77A97ED057A77EEEE
:10569000277AC7ED057A7B8A01337B827B8AFF2BD1
:1056A000E2D9D7ED057ADFED076A87EEA67AB0EE8C
:1056B000470A06F0FBFBF0EE407AB0EE670A1837B7
:1056C000BD4680BD0000804380B586B000AF7860E5
:1056D0004FF000037B6100237B821AE07A8A134635
:1056E0005B0013449B001A467B6813441846FFF77F
:1056F00085FF87ED030A97ED037AD7ED057AB4EEBF
:10570000E77AF1EE10FA01DDFB687B617B8A0133F9
:105710007B827B8AFF2BE1D97B6907EE903AB0EE62
:10572000670A1837BD4680BD80B483B000AF87EDEF
:10573000010AC7ED000AD7ED007A9FED0C7AF4EE6E
:10574000C77AF1EE10FA02D5DFED096A05E097EDB0
:10575000017AD7ED007AC7EE276AF0EE667AB0EEEE
:10576000670A0C37BD465DF8047B704717B7D13820
:105770000000000080B483B000AF78607B6803F164
:1057800008027B685A607B684FF0FF329A607B6842
:1057900003F108027B68DA607B6803F108027B682A
:1057A0001A617B6800221A6000BF0C37BD465DF8A5
:1057B000047B704780B483B000AF78607B680022C0
:1057C0001A6100BF0C37BD465DF8047B704780B49A
:1057D00085B000AF786039607B685B68FB603B68D0
:1057E000FA685A60FB689A683B689A60FB689B6835
:1057F0003A685A60FB683A689A603B687A681A614E
:105800007B681B685A1C7B681A6000BF1437BD4652
:105810005DF8047B704780B485B000AF7860396074
:105820003B681B68BB60BB68B3F1FF3F03D17B687B
:105830001B69FB600CE07B680833FB6002E0FB68DF
:105840005B68FB60FB685B681B68BA689A42F6D2CB
:10585000FB685A683B685A603B685B683A689A60C4
:105860003B68FA689A60FB683A685A603B687A68F5
:105870001A617B681B685A1C7B681A6000BF14376A
:10588000BD465DF8047B704780B485B000AF78609A
:105890007B681B69FB607B685B687A6892689A60CA
:1058A0007B689B687A6852685A60FB685B687A68B4
:1058B0009A4203D17B689A68FB685A607B68002231
:1058C0001A61FB681B685A1EFB681A60FB681B683C
:1058D00018461437BD465DF8047B704780B584B028
:1058E00000AF786039607B68FB60FB68002B0BD1F0
:1058F0004FF0500383F31188BFF36F8FBFF34F8FC7
:10590000BB6000BF00BFFDE701F070FCFB681A68D8
:10591000FB68DB6BF968096C01FB03F31A44FB6855
:105920009A60FB6800229A63FB681A68FB685A60F9
:10593000FB681A68FB68DB6B013BF968096C01FBCB
:1059400003F31A44FB68DA60FB68FF2283F8442003
:10595000FB68FF2283F845203B68002B14D1FB68CD
:105960001B69002B1AD0FB681033184600F040FF6B
:105970000346002B12D00D4B4FF080521A60BFF33C
:105980004F8FBFF36F8F09E0FB6810331846FFF7A6
:10599000F1FEFB6824331846FFF7ECFE01F058FCDB
:1059A000012318461037BD4680BD00BF04ED00E05E
:1059B00080B58CB002AFF860B9601346FB71FB682C
:1059C000002B0BD14FF0500383F31188BFF36F8F7F
:1059D000BFF34F8FBB6100BF00BFFDE7FB68BA6834
:1059E00002FB03F37B62BB68002B06D07A6ABB68BC
:1059F000B2FBF3F3FA689A4201D1012300E00023DD
:105A0000002B0BD14FF0500383F31188BFF36F8F3E
:105A1000BFF34F8F7B6100BF00BFFDE77B6A13F1CF
:105A2000510F0BD94FF0500383F31188BFF36F8FE1
:105A3000BFF34F8F3B6100BF00BFFDE77B6A503370
:105A4000184601F0BBFC38623B6A002B0DD03B6A64
:105A5000FB61FB695033FB61FA793B6A00931346A3
:105A6000FA69B968F86800F005F83B6A1846283703
:105A7000BD4680BD80B584B000AFF860B9607A6083
:105A8000FB70BB68002B03D1BB69BA691A6002E0E6
:105A9000BB697A681A60BB69FA68DA63BB69BA687D
:105AA0001A640121B869FFF719FFBB69FA7883F816
:105AB0004C2000BF1037BD4680BD000080B58CB0C3
:105AC00000AFF860B9607A603B600023FB62FB685E
:105AD000BB62BB6A002B0BD14FF0500383F31188DC
